{
    "contractName": "BridgeDistributor",
    "abi": [
        {
            "anonymous": false,
            "inputs": [
                {
                    "indexed": true,
                    "internalType": "address",
                    "name": "previousOwner",
                    "type": "address"
                },
                {
                    "indexed": true,
                    "internalType": "address",
                    "name": "newOwner",
                    "type": "address"
                }
            ],
            "name": "OwnershipTransferred",
            "type": "event"
        },
        {
            "inputs": [],
            "name": "claimRegistry",
            "outputs": [
                {
                    "internalType": "contract IClaimingRegistry",
                    "name": "",
                    "type": "address"
                }
            ],
            "stateMutability": "view",
            "type": "function",
            "constant": true
        },
        {
            "inputs": [],
            "name": "contractsRegistry",
            "outputs": [
                {
                    "internalType": "contract IContractsRegistry",
                    "name": "",
                    "type": "address"
                }
            ],
            "stateMutability": "view",
            "type": "function",
            "constant": true
        },
        {
            "inputs": [],
            "name": "owner",
            "outputs": [
                {
                    "internalType": "address",
                    "name": "",
                    "type": "address"
                }
            ],
            "stateMutability": "view",
            "type": "function",
            "constant": true
        },
        {
            "inputs": [],
            "name": "policyBookRegistry",
            "outputs": [
                {
                    "internalType": "contract IPolicyBookRegistry",
                    "name": "",
                    "type": "address"
                }
            ],
            "stateMutability": "view",
            "type": "function",
            "constant": true
        },
        {
            "inputs": [],
            "name": "policyQuote",
            "outputs": [
                {
                    "internalType": "contract IPolicyQuote",
                    "name": "",
                    "type": "address"
                }
            ],
            "stateMutability": "view",
            "type": "function",
            "constant": true
        },
        {
            "inputs": [],
            "name": "policyRegistry",
            "outputs": [
                {
                    "internalType": "contract IPolicyRegistry",
                    "name": "",
                    "type": "address"
                }
            ],
            "stateMutability": "view",
            "type": "function",
            "constant": true
        },
        {
            "inputs": [],
            "name": "renounceOwnership",
            "outputs": [],
            "stateMutability": "nonpayable",
            "type": "function"
        },
        {
            "inputs": [
                {
                    "internalType": "address",
                    "name": "newOwner",
                    "type": "address"
                }
            ],
            "name": "transferOwnership",
            "outputs": [],
            "stateMutability": "nonpayable",
            "type": "function"
        },
        {
            "inputs": [
                {
                    "internalType": "address",
                    "name": "_contractsRegistry",
                    "type": "address"
                }
            ],
            "name": "initialize",
            "outputs": [],
            "stateMutability": "nonpayable",
            "type": "function"
        },
        {
            "inputs": [
                {
                    "internalType": "address",
                    "name": "_userAddr",
                    "type": "address"
                },
                {
                    "internalType": "bool",
                    "name": "_isActive",
                    "type": "bool"
                }
            ],
            "name": "getCoverCount",
            "outputs": [
                {
                    "internalType": "uint256",
                    "name": "",
                    "type": "uint256"
                }
            ],
            "stateMutability": "view",
            "type": "function",
            "constant": true
        },
        {
            "inputs": [
                {
                    "internalType": "address",
                    "name": "_userAddr",
                    "type": "address"
                },
                {
                    "internalType": "uint256",
                    "name": "_coverId",
                    "type": "uint256"
                },
                {
                    "internalType": "bool",
                    "name": "_isActive",
                    "type": "bool"
                },
                {
                    "internalType": "uint256",
                    "name": "_limitLoop",
                    "type": "uint256"
                }
            ],
            "name": "getCover",
            "outputs": [
                {
                    "components": [
                        {
                            "internalType": "bytes32",
                            "name": "coverType",
                            "type": "bytes32"
                        },
                        {
                            "internalType": "uint256",
                            "name": "productId",
                            "type": "uint256"
                        },
                        {
                            "internalType": "bytes32",
                            "name": "contractName",
                            "type": "bytes32"
                        },
                        {
                            "internalType": "uint256",
                            "name": "coverAmount",
                            "type": "uint256"
                        },
                        {
                            "internalType": "uint256",
                            "name": "premium",
                            "type": "uint256"
                        },
                        {
                            "internalType": "address",
                            "name": "currency",
                            "type": "address"
                        },
                        {
                            "internalType": "address",
                            "name": "contractAddress",
                            "type": "address"
                        },
                        {
                            "internalType": "uint256",
                            "name": "expiration",
                            "type": "uint256"
                        },
                        {
                            "internalType": "uint256",
                            "name": "status",
                            "type": "uint256"
                        },
                        {
                            "internalType": "address",
                            "name": "refAddress",
                            "type": "address"
                        }
                    ],
                    "internalType": "struct IDistributor.Cover",
                    "name": "",
                    "type": "tuple"
                }
            ],
            "stateMutability": "view",
            "type": "function",
            "constant": true
        },
        {
            "inputs": [
                {
                    "internalType": "address",
                    "name": "_userAddr",
                    "type": "address"
                }
            ],
            "name": "getPoliciesArr",
            "outputs": [
                {
                    "internalType": "address[]",
                    "name": "_arr",
                    "type": "address[]"
                }
            ],
            "stateMutability": "view",
            "type": "function",
            "constant": true
        },
        {
            "inputs": [
                {
                    "internalType": "uint256",
                    "name": "_bridgeEpochs",
                    "type": "uint256"
                },
                {
                    "internalType": "uint256",
                    "name": "_amountInWei",
                    "type": "uint256"
                },
                {
                    "internalType": "address",
                    "name": "_interfaceCompliant3",
                    "type": "address"
                },
                {
                    "internalType": "address",
                    "name": "_bridgeProductAddress",
                    "type": "address"
                },
                {
                    "internalType": "address",
                    "name": "_interfaceCompliant4",
                    "type": "address"
                },
                {
                    "internalType": "bytes",
                    "name": "_interfaceCompliant5",
                    "type": "bytes"
                }
            ],
            "name": "getQuote",
            "outputs": [
                {
                    "components": [
                        {
                            "internalType": "uint256",
                            "name": "prop1",
                            "type": "uint256"
                        },
                        {
                            "internalType": "uint256",
                            "name": "prop2",
                            "type": "uint256"
                        },
                        {
                            "internalType": "uint256",
                            "name": "prop3",
                            "type": "uint256"
                        },
                        {
                            "internalType": "uint256",
                            "name": "prop4",
                            "type": "uint256"
                        },
                        {
                            "internalType": "uint256",
                            "name": "prop5",
                            "type": "uint256"
                        },
                        {
                            "internalType": "uint256",
                            "name": "prop6",
                            "type": "uint256"
                        },
                        {
                            "internalType": "uint256",
                            "name": "prop7",
                            "type": "uint256"
                        }
                    ],
                    "internalType": "struct IDistributor.CoverQuote",
                    "name": "",
                    "type": "tuple"
                }
            ],
            "stateMutability": "view",
            "type": "function",
            "constant": true
        },
        {
            "inputs": [
                {
                    "internalType": "address",
                    "name": "_bridgeProductAddress",
                    "type": "address"
                },
                {
                    "internalType": "address",
                    "name": "_interfaceCompliant1",
                    "type": "address"
                },
                {
                    "internalType": "uint256",
                    "name": "_durationSeconds",
                    "type": "uint256"
                },
                {
                    "internalType": "uint16",
                    "name": "_interfaceCompliant2",
                    "type": "uint16"
                },
                {
                    "internalType": "uint8",
                    "name": "_interfaceCompliant3",
                    "type": "uint8"
                },
                {
                    "internalType": "uint256",
                    "name": "_coverTokens",
                    "type": "uint256"
                },
                {
                    "internalType": "bytes",
                    "name": "_interfaceCompliant4",
                    "type": "bytes"
                }
            ],
            "name": "buyCover",
            "outputs": [],
            "stateMutability": "payable",
            "type": "function",
            "payable": true
        },
        {
            "inputs": [
                {
                    "internalType": "uint16[]",
                    "name": "products",
                    "type": "uint16[]"
                },
                {
                    "internalType": "uint16[]",
                    "name": "durationInDays",
                    "type": "uint16[]"
                },
                {
                    "internalType": "uint256[]",
                    "name": "amounts",
                    "type": "uint256[]"
                },
                {
                    "internalType": "address",
                    "name": "currency",
                    "type": "address"
                },
                {
                    "internalType": "uint256",
                    "name": "premiumAmount",
                    "type": "uint256"
                },
                {
                    "internalType": "uint256[]",
                    "name": "helperParameters",
                    "type": "uint256[]"
                },
                {
                    "internalType": "uint256[]",
                    "name": "securityParameters",
                    "type": "uint256[]"
                },
                {
                    "internalType": "uint8[]",
                    "name": "v",
                    "type": "uint8[]"
                },
                {
                    "internalType": "bytes32[]",
                    "name": "r",
                    "type": "bytes32[]"
                },
                {
                    "internalType": "bytes32[]",
                    "name": "s",
                    "type": "bytes32[]"
                }
            ],
            "name": "buyCoverDecode",
            "outputs": [],
            "stateMutability": "payable",
            "type": "function",
            "payable": true
        },
        {
            "inputs": [
                {
                    "internalType": "bytes4",
                    "name": "interfaceId",
                    "type": "bytes4"
                }
            ],
            "name": "supportsInterface",
            "outputs": [
                {
                    "internalType": "bool",
                    "name": "",
                    "type": "bool"
                }
            ],
            "stateMutability": "view",
            "type": "function",
            "constant": true
        }
    ],
    "bytecode": "0x608060405234801561001057600080fd5b50612260806100206000396000f3fe6080604052600436106100f35760003560e01c8063b194270f1161008a578063d8a856ee11610059578063d8a856ee14610275578063d98d0c7e14610288578063f2fde38b1461029d578063fd7057f7146102bd576100f3565b8063b194270f146101e8578063b1c36ebe14610215578063c4d66de814610242578063ced938e414610262576100f3565b8063715018a6116100c6578063715018a61461017a5780638da5cb5b14610191578063a878e156146101a6578063ac496c7b146101bb576100f3565b806301ffc9a7146100f857806307e2ad2f1461012e5780631c4dd7d014610150578063400b70d514610165575b600080fd5b34801561010457600080fd5b50610118610113366004611d39565b6102ea565b6040516101259190611fe6565b60405180910390f35b34801561013a57600080fd5b50610143610317565b6040516101259190611f5f565b34801561015c57600080fd5b50610143610326565b34801561017157600080fd5b50610143610335565b34801561018657600080fd5b5061018f610344565b005b34801561019d57600080fd5b50610143610402565b3480156101b257600080fd5b50610143610411565b3480156101c757600080fd5b506101db6101d6366004611a30565b610420565b60405161012591906120ce565b3480156101f457600080fd5b506102086102033660046119f8565b610724565b604051610125919061215a565b34801561022157600080fd5b50610235610230366004611ec5565b610859565b6040516101259190612080565b34801561024e57600080fd5b5061018f61025d36600461191e565b610b87565b61018f610270366004611bca565b610ea1565b61018f61028336600461195d565b610f16565b34801561029457600080fd5b50610143610fe5565b3480156102a957600080fd5b5061018f6102b836600461191e565b610ff4565b3480156102c957600080fd5b506102dd6102d836600461191e565b611109565b6040516101259190611f99565b60006001600160e01b0319821663bb90826760e01b148061030f575061030f826102ea565b90505b919050565b6098546001600160a01b031681565b6097546001600160a01b031681565b609b546001600160a01b031681565b61034c61118e565b6001600160a01b031661035d610402565b6001600160a01b0316146103b8576040805162461bcd60e51b815260206004820181905260248201527f4f776e61626c653a2063616c6c6572206973206e6f7420746865206f776e6572604482015290519081900360640190fd5b6033546040516000916001600160a01b0316907f8be0079c531659141344cd1fd0a4f28419497f9722a3daafe3b4186f6b6457e0908390a3603380546001600160a01b0319169055565b6033546001600160a01b031690565b609a546001600160a01b031681565b61042861152f565b609754604051631b60561160e21b81526000916001600160a01b031690636d81584490610459908990600401611f5f565b60206040518083038186803b15801561047157600080fd5b505afa158015610485573d6000803e3d6000fd5b505050506040513d601f19601f820116820180604052508101906104a99190611d61565b90506104b3611583565b60975460405163a5f926f560e01b81526001600160a01b039091169063a5f926f5906104ea908a9089906000908890600401611f73565b60006040518083038186803b15801561050257600080fd5b505afa158015610516573d6000803e3d6000fd5b505050506040513d6000823e601f3d908101601f1916820160405261053e9190810190611d79565b60608501526040840152602083015280825286106105775760405162461bcd60e51b815260040161056e90612028565b60405180910390fd5b6000848260000151111561058c575083610590565b5080515b60608167ffffffffffffffff811180156105a957600080fd5b506040519080825280602002602001820160405280156105e357816020015b6105d061152f565b8152602001906001900390816105c85790505b50905060005b82811015610701576105f961152f565b8460200151828151811061060957fe5b60209081029190910101516001600160a01b031660c0820152604085015180518390811061063357fe5b6020908102919091010151516060820152604085015180518390811061065557fe5b6020026020010151602001518160800181815250508460400151828151811061067a57fe5b6020026020010151604001518160200181815250508460400151828151811061069f57fe5b6020026020010151606001518160e0018181525050846060015182815181106106c457fe5b602002602001015160068111156106d757fe5b610100820152825181908490849081106106ed57fe5b6020908102919091010152506001016105e9565b5080888151811061070e57fe5b6020026020010151945050505050949350505050565b609754604051631b60561160e21b815260009182916001600160a01b0390911690636d81584490610759908790600401611f5f565b60206040518083038186803b15801561077157600080fd5b505afa158015610785573d6000803e3d6000fd5b505050506040513d601f19601f820116820180604052508101906107a99190611d61565b90506107b3611583565b60975460405163a5f926f560e01b81526001600160a01b039091169063a5f926f5906107ea90889088906000908890600401611f73565b60006040518083038186803b15801561080257600080fd5b505afa158015610816573d6000803e3d6000fd5b505050506040513d6000823e601f3d908101601f1916820160405261083e9190810190611d79565b60608501526040840152602083015290819052949350505050565b6108616115ab565b609854604051634c3b9f1960e01b81526000916001600160a01b031690634c3b9f1990610892908990600401611f5f565b60206040518083038186803b1580156108aa57600080fd5b505afa1580156108be573d6000803e3d6000fd5b505050506040513d601f19601f820116820180604052508101906108e29190611d1d565b90506001811515146109065760405162461bcd60e51b815260040161056e90611ff1565b8561090f6115ab565b6040516329891f6960e01b81526001600160a01b038316906329891f699061093d908e908e90600401612163565b604080518083038186803b15801561095457600080fd5b505afa158015610968573d6000803e3d6000fd5b505050506040513d601f19601f8201168201806040525081019061098c9190611ea2565b60208084019190915290825260408051630abb87c960e11b815290516001600160a01b038516926315770f929260048082019391829003018186803b1580156109d457600080fd5b505afa1580156109e8573d6000803e3d6000fd5b505050506040513d601f19601f82011682018060405250810190610a0c9190611d61565b816040018181525050816001600160a01b031663f60ff9376040518163ffffffff1660e01b815260040160206040518083038186803b158015610a4e57600080fd5b505afa158015610a62573d6000803e3d6000fd5b505050506040513d601f19601f82011682018060405250810190610a869190611d61565b60608281019190915260408051600180825281830190925290602080830190803683370190505090508281600081518110610abd57fe5b6001600160a01b03928316602091820292909201015260985460405163f10ed7a360e01b8152606092919091169063f10ed7a390610aff908590600401611f99565b60006040518083038186803b158015610b1757600080fd5b505afa158015610b2b573d6000803e3d6000fd5b505050506040513d6000823e601f3d908101601f19168201604052610b539190810190611ab2565b905080600081518110610b6257fe5b60209081029190910101516060015160a084015250909b9a5050505050505050505050565b600054610100900460ff1680610ba05750610ba0611192565b80610bae575060005460ff16155b610be95760405162461bcd60e51b815260040180806020018281038252602e8152602001806121fd602e913960400191505060405180910390fd5b600054610100900460ff16158015610c14576000805460ff1961ff0019909116610100171660011790555b610c1c6111a3565b610c24611255565b609980546001600160a01b0319166001600160a01b03848116919091179182905560408051630bc3f29d60e01b815290519290911691630bc3f29d91600480820192602092909190829003018186803b158015610c8057600080fd5b505afa158015610c94573d6000803e3d6000fd5b505050506040513d601f19601f82011682018060405250810190610cb89190611941565b609780546001600160a01b0319166001600160a01b039283161790556099546040805163dc9c563f60e01b81529051919092169163dc9c563f916004808301926020929190829003018186803b158015610d1157600080fd5b505afa158015610d25573d6000803e3d6000fd5b505050506040513d601f19601f82011682018060405250810190610d499190611941565b609880546001600160a01b0319166001600160a01b03928316179055609954604080516339f9615f60e01b8152905191909216916339f9615f916004808301926020929190829003018186803b158015610da257600080fd5b505afa158015610db6573d6000803e3d6000fd5b505050506040513d601f19601f82011682018060405250810190610dda9190611941565b609a80546001600160a01b0319166001600160a01b039283161790556099546040805163db43ccb560e01b81529051919092169163db43ccb5916004808301926020929190829003018186803b158015610e3357600080fd5b505afa158015610e47573d6000803e3d6000fd5b505050506040513d601f19601f82011682018060405250810190610e6b9190611941565b609b80546001600160a01b0319166001600160a01b03929092169190911790558015610e9d576000805461ff00191690555b5050565b60026065541415610ef9576040805162461bcd60e51b815260206004820152601f60248201527f5265656e7472616e637947756172643a207265656e7472616e742063616c6c00604482015290519081900360640190fd5b600260655560405162461bcd60e51b815261056e90600401612051565b60026065541415610f6e576040805162461bcd60e51b815260206004820152601f60248201527f5265656e7472616e637947756172643a207265656e7472616e742063616c6c00604482015290519081900360640190fd5b6002606555604051635da2460d60e01b815288906001600160a01b03821690635da2460d90610fa3908a908890600401612163565b600060405180830381600087803b158015610fbd57600080fd5b505af1158015610fd1573d6000803e3d6000fd5b505060016065555050505050505050505050565b6099546001600160a01b031681565b610ffc61118e565b6001600160a01b031661100d610402565b6001600160a01b031614611068576040805162461bcd60e51b815260206004820181905260248201527f4f776e61626c653a2063616c6c6572206973206e6f7420746865206f776e6572604482015290519081900360640190fd5b6001600160a01b0381166110ad5760405162461bcd60e51b81526004018080602001828103825260268152602001806121d76026913960400191505060405180910390fd5b6033546040516001600160a01b038084169216907f8be0079c531659141344cd1fd0a4f28419497f9722a3daafe3b4186f6b6457e090600090a3603380546001600160a01b0319166001600160a01b0392909216919091179055565b60975460405163fd7057f760e01b81526060916001600160a01b03169063fd7057f79061113a908590600401611f5f565b60006040518083038186803b15801561115257600080fd5b505afa158015611166573d6000803e3d6000fd5b505050506040513d6000823e601f3d908101601f1916820160405261030f9190810190611a77565b3390565b600061119d306112ea565b15905090565b600054610100900460ff16806111bc57506111bc611192565b806111ca575060005460ff16155b6112055760405162461bcd60e51b815260040180806020018281038252602e8152602001806121fd602e913960400191505060405180910390fd5b600054610100900460ff16158015611230576000805460ff1961ff0019909116610100171660011790555b6112386112f0565b611240611390565b8015611252576000805461ff00191690555b50565b600054610100900460ff168061126e575061126e611192565b8061127c575060005460ff16155b6112b75760405162461bcd60e51b815260040180806020018281038252602e8152602001806121fd602e913960400191505060405180910390fd5b600054610100900460ff161580156112e2576000805460ff1961ff0019909116610100171660011790555b611240611489565b3b151590565b600054610100900460ff16806113095750611309611192565b80611317575060005460ff16155b6113525760405162461bcd60e51b815260040180806020018281038252602e8152602001806121fd602e913960400191505060405180910390fd5b600054610100900460ff16158015611240576000805460ff1961ff0019909116610100171660011790558015611252576000805461ff001916905550565b600054610100900460ff16806113a957506113a9611192565b806113b7575060005460ff16155b6113f25760405162461bcd60e51b815260040180806020018281038252602e8152602001806121fd602e913960400191505060405180910390fd5b600054610100900460ff1615801561141d576000805460ff1961ff0019909116610100171660011790555b600061142761118e565b603380546001600160a01b0319166001600160a01b038316908117909155604051919250906000907f8be0079c531659141344cd1fd0a4f28419497f9722a3daafe3b4186f6b6457e0908290a3508015611252576000805461ff001916905550565b600054610100900460ff16806114a257506114a2611192565b806114b0575060005460ff16155b6114eb5760405162461bcd60e51b815260040180806020018281038252602e8152602001806121fd602e913960400191505060405180910390fd5b600054610100900460ff16158015611516576000805460ff1961ff0019909116610100171660011790555b60016065558015611252576000805461ff001916905550565b6040805161014081018252600080825260208201819052918101829052606081018290526080810182905260a0810182905260c0810182905260e08101829052610100810182905261012081019190915290565b6040518060800160405280600081526020016060815260200160608152602001606081525090565b6040518060e00160405280600081526020016000815260200160008152602001600081526020016000815260200160008152602001600081525090565b8035610312816121b3565b8051610312816121b3565b600082601f83011261160e578081fd5b815161162161161c82612195565b612171565b81815291506020808301908481018184028601820187101561164257600080fd5b60005b8481101561166a578151611658816121b3565b84529282019290820190600101611645565b505050505092915050565b600082601f830112611685578081fd5b813561169361161c82612195565b8181529150602080830190848101818402860182018710156116b457600080fd5b60005b8481101561166a578135845292820192908201906001016116b7565b600082601f8301126116e3578081fd5b81516116f161161c82612195565b81815291506020808301908481018184028601820187101561171257600080fd5b6000805b8581101561173e5782516007811061172c578283fd5b85529383019391830191600101611716565b50505050505092915050565b600082601f83011261175a578081fd5b813561176861161c82612195565b81815291506020808301908481018184028601820187101561178957600080fd5b60005b8481101561166a5761179d826118fb565b8452928201929082019060010161178c565b600082601f8301126117bf578081fd5b81356117cd61161c82612195565b8181529150602080830190848101818402860182018710156117ee57600080fd5b60005b8481101561166a576118028261190d565b845292820192908201906001016117f1565b8051610312816121c8565b60008083601f840112611830578182fd5b50813567ffffffffffffffff811115611847578182fd5b60208301915083602082850101111561185f57600080fd5b9250929050565b80516004811061031257600080fd5b600082601f830112611885578081fd5b815167ffffffffffffffff81111561189957fe5b60206118ad601f8301601f19168201612171565b925081835284818386010111156118c357600080fd5b60005b828110156118e15784810182015184820183015281016118c6565b828111156118f25760008284860101525b50505092915050565b803561ffff8116811461031257600080fd5b803560ff8116811461031257600080fd5b60006020828403121561192f578081fd5b813561193a816121b3565b9392505050565b600060208284031215611952578081fd5b815161193a816121b3565b60008060008060008060008060e0898b031215611978578384fd5b8835611983816121b3565b97506020890135611993816121b3565b9650604089013595506119a860608a016118fb565b94506119b660808a0161190d565b935060a0890135925060c089013567ffffffffffffffff8111156119d8578283fd5b6119e48b828c0161181f565b999c989b5096995094979396929594505050565b60008060408385031215611a0a578182fd5b8235611a15816121b3565b91506020830135611a25816121c8565b809150509250929050565b60008060008060808587031215611a45578182fd5b8435611a50816121b3565b9350602085013592506040850135611a67816121c8565b9396929550929360600135925050565b600060208284031215611a88578081fd5b815167ffffffffffffffff811115611a9e578182fd5b611aaa848285016115fe565b949350505050565b60006020808385031215611ac4578182fd5b825167ffffffffffffffff80821115611adb578384fd5b818501915085601f830112611aee578384fd5b8151611afc61161c82612195565b81815284810190848601875b84811015611bbb578151870160e080601f19838f03011215611b28578a8bfd5b611b3181612171565b8a83015189811115611b41578c8dfd5b611b4f8f8d83870101611875565b8252506040611b5f8185016115f3565b8c8301526060611b70818601611866565b828401526080915081850151818401525060a0808501518284015260c09150818501518184015250611ba3838501611814565b90820152865250509287019290870190600101611b08565b50909998505050505050505050565b6000806000806000806000806000806101408b8d031215611be9578384fd5b8a3567ffffffffffffffff80821115611c00578586fd5b611c0c8e838f0161174a565b9b5060208d0135915080821115611c21578586fd5b611c2d8e838f0161174a565b9a5060408d0135915080821115611c42578586fd5b611c4e8e838f01611675565b9950611c5c60608e016115e8565b985060808d0135975060a08d0135915080821115611c78578586fd5b611c848e838f01611675565b965060c08d0135915080821115611c99578586fd5b611ca58e838f01611675565b955060e08d0135915080821115611cba578384fd5b611cc68e838f016117af565b94506101008d0135915080821115611cdc578384fd5b611ce88e838f01611675565b93506101208d0135915080821115611cfe578283fd5b50611d0b8d828e01611675565b9150509295989b9194979a5092959850565b600060208284031215611d2e578081fd5b815161193a816121c8565b600060208284031215611d4a578081fd5b81356001600160e01b03198116811461193a578182fd5b600060208284031215611d72578081fd5b5051919050565b60008060008060808587031215611d8e578182fd5b8451935060208086015167ffffffffffffffff80821115611dad578485fd5b611db989838a016115fe565b9550604091508188015181811115611dcf578586fd5b8801601f81018a13611ddf578586fd5b8051611ded61161c82612195565b8181528581019083870160808402850188018e1015611e0a57898afd5b8994505b83851015611e6e576080818f031215611e2557898afd5b8651608081018181108882111715611e3957fe5b885281518152888201518982015281880151818901526060808301519082015283526001949094019391870191608001611e0e565b5060608c0151909850955050505080831115611e88578384fd5b5050611e96878288016116d3565b91505092959194509250565b60008060408385031215611eb4578182fd5b505080516020909101519092909150565b600080600080600080600060c0888a031215611edf578081fd5b87359650602088013595506040880135611ef8816121b3565b94506060880135611f08816121b3565b93506080880135611f18816121b3565b925060a088013567ffffffffffffffff811115611f33578182fd5b611f3f8a828b0161181f565b989b979a50959850939692959293505050565b6001600160a01b03169052565b6001600160a01b0391909116815260200190565b6001600160a01b0394909416845291151560208401526040830152606082015260800190565b6020808252825182820181905260009190848201906040850190845b81811015611fda5783516001600160a01b031683529284019291840191600101611fb5565b50909695505050505050565b901515815260200190565b60208082526018908201527f4e6f74206120706f6c696379426f6f6b2070726573656e740000000000000000604082015260600190565b6020808252600f908201526e125b9d985b1a590818dbdd995c9259608a1b604082015260600190565b6020808252601590820152742ab739bab83837b93a32b21037b832b930ba34b7b760591b604082015260600190565b600060e082019050825182526020830151602083015260408301516040830152606083015160608301526080830151608083015260a083015160a083015260c083015160c083015292915050565b600061014082019050825182526020830151602083015260408301516040830152606083015160608301526080830151608083015260a083015161211560a0840182611f52565b5060c083015161212860c0840182611f52565b5060e083015160e08301526101008084015181840152506101208084015161215282850182611f52565b505092915050565b90815260200190565b918252602082015260400190565b60405181810167ffffffffffffffff8111828210171561218d57fe5b604052919050565b600067ffffffffffffffff8211156121a957fe5b5060209081020190565b6001600160a01b038116811461125257600080fd5b801515811461125257600080fdfe4f776e61626c653a206e6577206f776e657220697320746865207a65726f2061646472657373496e697469616c697a61626c653a20636f6e747261637420697320616c726561647920696e697469616c697a6564a2646970667358221220694e258358c6257679c4ad2bc91a55f12929405ec442f68987b4e84d4da7582364736f6c63430007040033",
    "immutableReferences": {},
    "source": "//// SPDX-License-Identifier: GPL-3.0\npragma solidity 0.7.4;\npragma experimental ABIEncoderV2;\n\nimport \"@openzeppelin/contracts-upgradeable/proxy/Initializable.sol\";\nimport \"@openzeppelin/contracts-upgradeable/access/OwnableUpgradeable.sol\";\nimport \"@openzeppelin/contracts-upgradeable/utils/ReentrancyGuardUpgradeable.sol\";\nimport \"@openzeppelin/contracts/token/ERC20/SafeERC20.sol\";\n\nimport \"./interfaces/IClaimingRegistry.sol\";\nimport \"./interfaces/IPolicyRegistry.sol\";\nimport \"./interfaces/IPolicyBookRegistry.sol\";\nimport \"./interfaces/IContractsRegistry.sol\";\nimport \"./interfaces/IPolicyBookFabric.sol\";\nimport \"./interfaces/IBridgeDistributor.sol\";\nimport \"./interfaces/IPolicyBook.sol\";\nimport \"./interfaces/IPolicyBookFabric.sol\";\nimport \"./interfaces/IPolicyQuote.sol\";\nimport \"../../IDistributor.sol\";\n\n\ncontract BridgeDistributor is IDistributor,\n    Initializable,\n    OwnableUpgradeable,\n    ReentrancyGuardUpgradeable\n{\n    using SafeMath for uint256;\n\n    IPolicyRegistry public policyRegistry;\n    IPolicyBookRegistry public policyBookRegistry;\n    IContractsRegistry public contractsRegistry;\n    IClaimingRegistry public claimRegistry;\n    IPolicyQuote public policyQuote;\n\n    \n    struct PolicyInfo {\n        uint256 policiesCount;\n        address[] polBooksArr;\n        IPolicyRegistry.PolicyInfo[] policiesInfo;\n        IClaimingRegistry.ClaimStatus[] status;\n    }\n\n    function initialize(\n                address _contractsRegistry\n        ) public initializer {\n        __Ownable_init();\n        __ReentrancyGuard_init();\n        contractsRegistry    = IContractsRegistry(_contractsRegistry);\n        policyRegistry       = IPolicyRegistry( contractsRegistry.getPolicyRegistryContract() );\n        policyBookRegistry   = IPolicyBookRegistry( contractsRegistry.getPolicyBookRegistryContract() );\n        claimRegistry        = IClaimingRegistry( contractsRegistry.getClaimingRegistryContract() );\n        policyQuote          = IPolicyQuote( contractsRegistry.getPolicyQuoteContract() );\n    }\n    \n    function getCoverCount(address _userAddr, bool _isActive)\n        external view override\n        returns (uint256){\n        uint256 _ownersCoverCount = policyRegistry.getPoliciesLength(_userAddr);\n\n        PolicyInfo memory pol;\n           (pol.policiesCount,\n            pol.polBooksArr,\n            pol.policiesInfo,\n            pol.status) = policyRegistry.getPoliciesInfo(_userAddr, _isActive, 0, _ownersCoverCount);\n        return pol.policiesCount;\n    }\n\n    function getCover(address _userAddr, uint256 _coverId, bool _isActive, uint256 _limitLoop) external view override\n         returns(IDistributor.Cover memory) {\n             \n           uint256 _ownersCoverCount = policyRegistry.getPoliciesLength(_userAddr);\n                \n            PolicyInfo memory pol;\n           (pol.policiesCount,\n            pol.polBooksArr,\n            pol.policiesInfo,\n            pol.status) = policyRegistry.getPoliciesInfo(_userAddr, _isActive, 0, _ownersCoverCount);\n            \n            require(_coverId < pol.policiesCount,\"Invalid coverId\");\n            \n            uint256 limit = 0;\n                if(pol.policiesCount > _limitLoop){\n                    limit = _limitLoop;\n                }else{\n                    limit = pol.policiesCount;\n                }\n            \n            IDistributor.Cover[] memory userCovers = new IDistributor.Cover[](limit);\n            \n            for(uint coverId= 0; coverId < limit; coverId++){\n                \n                  IDistributor.Cover memory cover;\n                  cover.contractAddress = pol.polBooksArr[coverId];\n                  cover.coverAmount = pol.policiesInfo[coverId].coverAmount;\n                  cover.premium = pol.policiesInfo[coverId].premium;\n                  cover.productId = pol.policiesInfo[coverId].startTime;\n                  cover.expiration = pol.policiesInfo[coverId].endTime;\n                  cover.status = uint256(pol.status[coverId]);\n                  userCovers[coverId] = cover;\n            }\n            return userCovers[_coverId];\n    }\n\n    function getPoliciesArr(address _userAddr)\n        external\n        view\n        returns (address[] memory _arr){\n        return policyRegistry.getPoliciesArr(_userAddr);\n    }\n    \n    function getQuote(\n        uint256 _bridgeEpochs,\n        uint256 _amountInWei,\n        address _interfaceCompliant3,\n        address _bridgeProductAddress,\n        address _interfaceCompliant4,\n        bytes calldata _interfaceCompliant5\n    ) external view override returns (\n        IDistributor.CoverQuote memory\n    ){\n        \n        bool isPolicyBook = policyBookRegistry.isPolicyBook(_bridgeProductAddress);\n        require(isPolicyBook == true, \"Not a policyBook present\");\n        \n        IPolicyBook policyBook = IPolicyBook(_bridgeProductAddress);\n        \n        \n        CoverQuote memory coverQuote;\n       (coverQuote.prop1, // totalSeconds, totalPrice\n        coverQuote.prop2) = policyBook.getPolicyPrice(_bridgeEpochs,_amountInWei);\n        coverQuote.prop3  = policyBook.totalLiquidity();\n        coverQuote.prop4  = policyBook.totalCoverTokens();\n        //coverQuote.prop5  = policyQuote.getQuote(_durationSeconds,_tokens, _policyBookAddr); get price in DAI? \n\n        address[] memory policyBookArr = new address[](1);\n        policyBookArr[0]  = address(policyBook);\n        (IPolicyBookRegistry.PolicyBookStats[] memory _stats) = policyBookRegistry.stats(policyBookArr);\n        coverQuote.prop6  = _stats[0].maxCapacity;\n\n        return coverQuote;\n    }\n\n\n    function buyCover(\n        address _bridgeProductAddress,\n        address _interfaceCompliant1,\n        uint256 _durationSeconds,\n        uint16 _interfaceCompliant2,\n        uint8 _interfaceCompliant3,\n        uint256 _coverTokens,\n        bytes calldata _interfaceCompliant4\n        ) external \n        payable override nonReentrant{\n            IPolicyBook policyBook = IPolicyBook(_bridgeProductAddress);\n            policyBook.buyPolicy( _durationSeconds,  _coverTokens);\n    }\n\n    function buyCoverDecode(\n        uint16[] memory products,\n        uint16[] memory durationInDays,\n        uint256[] memory amounts,\n        address currency,\n        uint256 premiumAmount,\n        uint256[] memory helperParameters,\n        uint256[] memory securityParameters,\n        uint8[] memory v,\n        bytes32[] memory r,\n        bytes32[] memory s\n    ) external payable override nonReentrant {\n        revert(\"Unsupported operation\");\n    }\n    \n    function supportsInterface(bytes4 interfaceId) public view virtual override returns (bool) {\n         return interfaceId == type(IDistributor).interfaceId || supportsInterface(interfaceId);\n    }\n\n}\n",
    "sourcePath": "/Users/danielguerrero/workspace/BRIGHT/distributors/contracts/distributors/bridge/BridgeDistributor.sol",
    "compiler": {
        "name": "solc",
        "version": "0.7.4+commit.3f05b770.Emscripten.clang"
    },
    "schemaVersion": "3.3.4",
    "updatedAt": "2021-10-21T23:46:52.203Z",
    "networkType": "ethereum",
    "devdoc": {
        "kind": "dev",
        "methods": {
            "owner()": {
                "details": "Returns the address of the current owner."
            },
            "renounceOwnership()": {
                "details": "Leaves the contract without owner. It will not be possible to call `onlyOwner` functions anymore. Can only be called by the current owner. NOTE: Renouncing ownership will leave the contract without an owner, thereby removing any functionality that is only available to the owner."
            },
            "supportsInterface(bytes4)": {
                "details": "Returns true if this contract implements the interface defined by `interfaceId`. See the corresponding https://eips.ethereum.org/EIPS/eip-165#how-interfaces-are-identified[EIP section] to learn more about how these ids are created. This function call must use less than 30 000 gas."
            },
            "transferOwnership(address)": {
                "details": "Transfers ownership of the contract to a new account (`newOwner`). Can only be called by the current owner."
            }
        },
        "version": 1
    },
    "userdoc": {
        "kind": "user",
        "methods": {},
        "version": 1
    }
}