{
  "contractName": "Distributors",
  "abi": [
    {
      "anonymous": false,
      "inputs": [
        {
          "indexed": true,
          "internalType": "string",
          "name": "provider",
          "type": "string"
        },
        {
          "components": [
            {
              "internalType": "bytes32",
              "name": "coverType",
              "type": "bytes32"
            },
            {
              "internalType": "uint256",
              "name": "productId",
              "type": "uint256"
            },
            {
              "internalType": "bytes32",
              "name": "contractName",
              "type": "bytes32"
            },
            {
              "internalType": "uint256",
              "name": "coverAmount",
              "type": "uint256"
            },
            {
              "internalType": "uint256",
              "name": "premium",
              "type": "uint256"
            },
            {
              "internalType": "address",
              "name": "currency",
              "type": "address"
            },
            {
              "internalType": "address",
              "name": "contractAddress",
              "type": "address"
            },
            {
              "internalType": "uint256",
              "name": "expiration",
              "type": "uint256"
            },
            {
              "internalType": "uint256",
              "name": "status",
              "type": "uint256"
            },
            {
              "internalType": "address",
              "name": "refAddress",
              "type": "address"
            }
          ],
          "indexed": false,
          "internalType": "struct IDistributor.Cover",
          "name": "",
          "type": "tuple"
        }
      ],
      "name": "BoughtCover",
      "type": "event"
    },
    {
      "anonymous": false,
      "inputs": [
        {
          "indexed": true,
          "internalType": "address",
          "name": "owner",
          "type": "address"
        },
        {
          "indexed": false,
          "internalType": "bytes",
          "name": "distributor",
          "type": "bytes"
        },
        {
          "indexed": false,
          "internalType": "bytes",
          "name": "reason",
          "type": "bytes"
        }
      ],
      "name": "ErrorNotHandled",
      "type": "event"
    },
    {
      "anonymous": false,
      "inputs": [
        {
          "indexed": true,
          "internalType": "address",
          "name": "previousOwner",
          "type": "address"
        },
        {
          "indexed": true,
          "internalType": "address",
          "name": "newOwner",
          "type": "address"
        }
      ],
      "name": "OwnershipTransferred",
      "type": "event"
    },
    {
      "stateMutability": "payable",
      "type": "fallback"
    },
    {
      "inputs": [],
      "name": "owner",
      "outputs": [
        {
          "internalType": "address",
          "name": "",
          "type": "address"
        }
      ],
      "stateMutability": "view",
      "type": "function"
    },
    {
      "inputs": [],
      "name": "registry",
      "outputs": [
        {
          "internalType": "contract DistributorRegistry",
          "name": "",
          "type": "address"
        }
      ],
      "stateMutability": "view",
      "type": "function"
    },
    {
      "inputs": [],
      "name": "renounceOwnership",
      "outputs": [],
      "stateMutability": "nonpayable",
      "type": "function"
    },
    {
      "inputs": [
        {
          "internalType": "address",
          "name": "newOwner",
          "type": "address"
        }
      ],
      "name": "transferOwnership",
      "outputs": [],
      "stateMutability": "nonpayable",
      "type": "function"
    },
    {
      "inputs": [
        {
          "internalType": "address payable",
          "name": "_registry",
          "type": "address"
        }
      ],
      "name": "initialize",
      "outputs": [],
      "stateMutability": "nonpayable",
      "type": "function"
    },
    {
      "inputs": [
        {
          "internalType": "string",
          "name": "_distributorName",
          "type": "string"
        }
      ],
      "name": "getDistributorAddress",
      "outputs": [
        {
          "internalType": "address",
          "name": "",
          "type": "address"
        }
      ],
      "stateMutability": "view",
      "type": "function"
    },
    {
      "inputs": [
        {
          "internalType": "string",
          "name": "_distributorName",
          "type": "string"
        },
        {
          "internalType": "address",
          "name": "_owner",
          "type": "address"
        },
        {
          "internalType": "bool",
          "name": "_isActive",
          "type": "bool"
        }
      ],
      "name": "getCoversCount",
      "outputs": [
        {
          "internalType": "uint256",
          "name": "",
          "type": "uint256"
        }
      ],
      "stateMutability": "view",
      "type": "function"
    },
    {
      "inputs": [
        {
          "internalType": "string",
          "name": "_distributorName",
          "type": "string"
        },
        {
          "internalType": "address",
          "name": "_owner",
          "type": "address"
        },
        {
          "internalType": "bool",
          "name": "_isActive",
          "type": "bool"
        },
        {
          "internalType": "uint256",
          "name": "_limitLoop",
          "type": "uint256"
        }
      ],
      "name": "getCovers",
      "outputs": [
        {
          "components": [
            {
              "internalType": "bytes32",
              "name": "coverType",
              "type": "bytes32"
            },
            {
              "internalType": "uint256",
              "name": "productId",
              "type": "uint256"
            },
            {
              "internalType": "bytes32",
              "name": "contractName",
              "type": "bytes32"
            },
            {
              "internalType": "uint256",
              "name": "coverAmount",
              "type": "uint256"
            },
            {
              "internalType": "uint256",
              "name": "premium",
              "type": "uint256"
            },
            {
              "internalType": "address",
              "name": "currency",
              "type": "address"
            },
            {
              "internalType": "address",
              "name": "contractAddress",
              "type": "address"
            },
            {
              "internalType": "uint256",
              "name": "expiration",
              "type": "uint256"
            },
            {
              "internalType": "uint256",
              "name": "status",
              "type": "uint256"
            },
            {
              "internalType": "address",
              "name": "refAddress",
              "type": "address"
            }
          ],
          "internalType": "struct IDistributor.Cover[]",
          "name": "",
          "type": "tuple[]"
        }
      ],
      "stateMutability": "view",
      "type": "function"
    },
    {
      "inputs": [
        {
          "internalType": "string",
          "name": "_distributorName",
          "type": "string"
        },
        {
          "internalType": "uint256",
          "name": "_sumAssured",
          "type": "uint256"
        },
        {
          "internalType": "uint256",
          "name": "_coverPeriod",
          "type": "uint256"
        },
        {
          "internalType": "address",
          "name": "_contractAddress",
          "type": "address"
        },
        {
          "internalType": "address",
          "name": "_coverAsset",
          "type": "address"
        },
        {
          "internalType": "address",
          "name": "_nexusCoverable",
          "type": "address"
        },
        {
          "internalType": "bytes",
          "name": "_data",
          "type": "bytes"
        }
      ],
      "name": "getQuote",
      "outputs": [
        {
          "components": [
            {
              "internalType": "uint256",
              "name": "prop1",
              "type": "uint256"
            },
            {
              "internalType": "uint256",
              "name": "prop2",
              "type": "uint256"
            },
            {
              "internalType": "uint256",
              "name": "prop3",
              "type": "uint256"
            },
            {
              "internalType": "uint256",
              "name": "prop4",
              "type": "uint256"
            },
            {
              "internalType": "uint256",
              "name": "prop5",
              "type": "uint256"
            },
            {
              "internalType": "uint256",
              "name": "prop6",
              "type": "uint256"
            },
            {
              "internalType": "uint256",
              "name": "prop7",
              "type": "uint256"
            }
          ],
          "internalType": "struct IDistributor.CoverQuote",
          "name": "",
          "type": "tuple"
        }
      ],
      "stateMutability": "view",
      "type": "function"
    },
    {
      "inputs": [
        {
          "internalType": "string",
          "name": "_distributorName",
          "type": "string"
        },
        {
          "internalType": "address",
          "name": "_contractAddress",
          "type": "address"
        },
        {
          "internalType": "address",
          "name": "_coverAsset",
          "type": "address"
        },
        {
          "internalType": "uint256",
          "name": "_sumAssured",
          "type": "uint256"
        },
        {
          "internalType": "uint16",
          "name": "_coverPeriod",
          "type": "uint16"
        },
        {
          "internalType": "uint8",
          "name": "_coverType",
          "type": "uint8"
        },
        {
          "internalType": "uint256",
          "name": "_maxPriceWithFee",
          "type": "uint256"
        },
        {
          "internalType": "bytes",
          "name": "_data",
          "type": "bytes"
        }
      ],
      "name": "buyCover",
      "outputs": [],
      "stateMutability": "payable",
      "type": "function"
    },
    {
      "inputs": [
        {
          "internalType": "string",
          "name": "_distributorName",
          "type": "string"
        },
        {
          "internalType": "uint16[]",
          "name": "_products",
          "type": "uint16[]"
        },
        {
          "internalType": "uint16[]",
          "name": "_durationInDays",
          "type": "uint16[]"
        },
        {
          "internalType": "uint256[]",
          "name": "_amounts",
          "type": "uint256[]"
        },
        {
          "internalType": "address",
          "name": "_currency",
          "type": "address"
        },
        {
          "internalType": "uint256",
          "name": "_premiumAmount",
          "type": "uint256"
        },
        {
          "internalType": "uint256[]",
          "name": "_helperParameters",
          "type": "uint256[]"
        },
        {
          "internalType": "uint256[]",
          "name": "_securityParameters",
          "type": "uint256[]"
        },
        {
          "internalType": "uint8[]",
          "name": "_v",
          "type": "uint8[]"
        },
        {
          "internalType": "bytes32[]",
          "name": "_r",
          "type": "bytes32[]"
        },
        {
          "internalType": "bytes32[]",
          "name": "_s",
          "type": "bytes32[]"
        }
      ],
      "name": "buyCoverDecode",
      "outputs": [],
      "stateMutability": "payable",
      "type": "function"
    }
  ],
  "bytecode": "0x608060405234801561001057600080fd5b506124ec806100206000396000f3fe60806040526004361061009c5760003560e01c8063b93473c311610064578063b93473c314610154578063c4d66de814610181578063cfe3c802146101a1578063da2cf0be146101ce578063dc84d273146101ee578063f2fde38b146102015761009c565b80633c0077a8146100bd5780635181678e146100f3578063715018a6146101085780637b1039991461011d5780638da5cb5b1461013f575b60405162461bcd60e51b81526004016100b4906122e6565b60405180910390fd5b3480156100c957600080fd5b506100dd6100d8366004611b3c565b610221565b6040516100ea9190612134565b60405180910390f35b610106610101366004611a11565b610580565b005b34801561011457600080fd5b50610106610833565b34801561012957600080fd5b506101326108f1565b6040516100ea9190612081565b34801561014b57600080fd5b50610132610900565b34801561016057600080fd5b5061017461016f366004611ada565b61090f565b6040516100ea9190612379565b34801561018d57600080fd5b5061010661019c36600461197b565b610b45565b3480156101ad57600080fd5b506101c16101bc366004611d26565b610c13565b6040516100ea9190612316565b3480156101da57600080fd5b506101326101e93660046119d6565b610e5e565b6101066101fc366004611ba4565b610ee7565b34801561020d57600080fd5b5061010661021c36600461197b565b611215565b6097546040516308fb705360e41b815260609186916000916001600160a01b031690638fb7053090610257908590600401612261565b60206040518083038186803b15801561026f57600080fd5b505afa158015610283573d6000803e3d6000fd5b505050506040513d601f19601f820116820180604052508101906102a7919061199e565b6040516301ffc9a760e01b81529091506001600160a01b038216906301ffc9a7906102dd9063bb90826760e01b9060040161224c565b60206040518083038186803b1580156102f557600080fd5b505afa158015610309573d6000803e3d6000fd5b505050506040513d601f19601f8201168201806040525081019061032d91906119ba565b6103495760405162461bcd60e51b81526004016100b490612294565b6097546040516308fb705360e41b81526000916001600160a01b031690638fb705309061037a908b90600401612261565b60206040518083038186803b15801561039257600080fd5b505afa1580156103a6573d6000803e3d6000fd5b505050506040513d601f19601f820116820180604052508101906103ca919061199e565b90506000816001600160a01b031663b194270f89896040518363ffffffff1660e01b81526004016103fc9291906120f1565b60206040518083038186803b15801561041457600080fd5b505afa158015610428573d6000803e3d6000fd5b505050506040513d601f19601f8201168201806040525081019061044c9190611ef6565b905060008682111561045f575085610462565b50805b60608167ffffffffffffffff8111801561047b57600080fd5b506040519080825280602002602001820160405280156104b557816020015b6104a26116cb565b81526020019060019003908161049a5790505b50905060005b82811015610571576104cb6116cb565b856001600160a01b031663ac496c7b8d848e8e6040518563ffffffff1660e01b81526004016104fd949392919061210c565b6101406040518083038186803b15801561051657600080fd5b505afa15801561052a573d6000803e3d6000fd5b505050506040513d601f19601f8201168201806040525081019061054e9190611e5b565b90508083838151811061055d57fe5b6020908102919091010152506001016104bb565b509a9950505050505050505050565b6097546040516308fb705360e41b81528a916000916001600160a01b0390911690638fb70530906105b5908590600401612261565b60206040518083038186803b1580156105cd57600080fd5b505afa1580156105e1573d6000803e3d6000fd5b505050506040513d601f19601f82011682018060405250810190610605919061199e565b6040516301ffc9a760e01b81529091506001600160a01b038216906301ffc9a79061063b9063bb90826760e01b9060040161224c565b60206040518083038186803b15801561065357600080fd5b505afa158015610667573d6000803e3d6000fd5b505050506040513d601f19601f8201168201806040525081019061068b91906119ba565b6106a75760405162461bcd60e51b81526004016100b490612294565b6097546040516308fb705360e41b81526000916001600160a01b031690638fb70530906106d8908f90600401612261565b60206040518083038186803b1580156106f057600080fd5b505afa158015610704573d6000803e3d6000fd5b505050506040513d601f19601f82011682018060405250810190610728919061199e565b604051636c542b7760e11b81529091506001600160a01b0382169063d8a856ee90610765908e908e908e908e908e908e908e908e90600401612095565b600060405180830381600087803b15801561077f57600080fd5b505af1158015610793573d6000803e3d6000fd5b5050505061079f6116cb565b6001600160a01b03808d1660c08301528b1660a0820152606081018a905261ffff891660e082015260ff88166020820152608081018790526040516107e5908e90612065565b60405180910390207f6ad877da960863c545c5ff113e1273ef8f59330f79ffe3a1e3efef8e0aabb7188260405161081c9190612364565b60405180910390a250505050505050505050505050565b61083b61132a565b6001600160a01b031661084c610900565b6001600160a01b0316146108a7576040805162461bcd60e51b815260206004820181905260248201527f4f776e61626c653a2063616c6c6572206973206e6f7420746865206f776e6572604482015290519081900360640190fd5b6033546040516000916001600160a01b0316907f8be0079c531659141344cd1fd0a4f28419497f9722a3daafe3b4186f6b6457e0908390a3603380546001600160a01b0319169055565b6097546001600160a01b031681565b6033546001600160a01b031690565b6097546040516308fb705360e41b8152600091859183916001600160a01b031690638fb7053090610944908590600401612261565b60206040518083038186803b15801561095c57600080fd5b505afa158015610970573d6000803e3d6000fd5b505050506040513d601f19601f82011682018060405250810190610994919061199e565b6040516301ffc9a760e01b81529091506001600160a01b038216906301ffc9a7906109ca9063bb90826760e01b9060040161224c565b60206040518083038186803b1580156109e257600080fd5b505afa1580156109f6573d6000803e3d6000fd5b505050506040513d601f19601f82011682018060405250810190610a1a91906119ba565b610a365760405162461bcd60e51b81526004016100b490612294565b6097546040516308fb705360e41b81526000916001600160a01b031690638fb7053090610a67908a90600401612261565b60206040518083038186803b158015610a7f57600080fd5b505afa158015610a93573d6000803e3d6000fd5b505050506040513d601f19601f82011682018060405250810190610ab7919061199e565b90506000816001600160a01b031663b194270f88886040518363ffffffff1660e01b8152600401610ae99291906120f1565b60206040518083038186803b158015610b0157600080fd5b505afa158015610b15573d6000803e3d6000fd5b505050506040513d601f19601f82011682018060405250810190610b399190611ef6565b98975050505050505050565b600054610100900460ff1680610b5e5750610b5e61132e565b80610b6c575060005460ff16155b610ba75760405162461bcd60e51b815260040180806020018281038252602e815260200180612489602e913960400191505060405180910390fd5b600054610100900460ff16158015610bd2576000805460ff1961ff0019909116610100171660011790555b610bda61133f565b610be26113f1565b609780546001600160a01b0319166001600160a01b0384161790558015610c0f576000805461ff00191690555b5050565b610c1b61171f565b6097546040516308fb705360e41b81528a916000916001600160a01b0390911690638fb7053090610c50908590600401612261565b60206040518083038186803b158015610c6857600080fd5b505afa158015610c7c573d6000803e3d6000fd5b505050506040513d601f19601f82011682018060405250810190610ca0919061199e565b6040516301ffc9a760e01b81529091506001600160a01b038216906301ffc9a790610cd69063bb90826760e01b9060040161224c565b60206040518083038186803b158015610cee57600080fd5b505afa158015610d02573d6000803e3d6000fd5b505050506040513d601f19601f82011682018060405250810190610d2691906119ba565b610d425760405162461bcd60e51b81526004016100b490612294565b6097546040516308fb705360e41b81526000916001600160a01b031690638fb7053090610d73908f90600401612261565b60206040518083038186803b158015610d8b57600080fd5b505afa158015610d9f573d6000803e3d6000fd5b505050506040513d601f19601f82011682018060405250810190610dc3919061199e565b6040516358e1b75f60e11b81529091506001600160a01b0382169063b1c36ebe90610dfe908e908e908e908e908e908e908e90600401612382565b60e06040518083038186803b158015610e1657600080fd5b505afa158015610e2a573d6000803e3d6000fd5b505050506040513d601f19601f82011682018060405250810190610e4e9190611dde565b9c9b505050505050505050505050565b6097546040516308fb705360e41b81526000916001600160a01b031690638fb7053090610e8f908590600401612261565b60206040518083038186803b158015610ea757600080fd5b505afa158015610ebb573d6000803e3d6000fd5b505050506040513d601f19601f82011682018060405250810190610edf919061199e565b90505b919050565b6097546040516308fb705360e41b81528c916000916001600160a01b0390911690638fb7053090610f1c908590600401612261565b60206040518083038186803b158015610f3457600080fd5b505afa158015610f48573d6000803e3d6000fd5b505050506040513d601f19601f82011682018060405250810190610f6c919061199e565b6040516301ffc9a760e01b81529091506001600160a01b038216906301ffc9a790610fa29063bb90826760e01b9060040161224c565b60206040518083038186803b158015610fba57600080fd5b505afa158015610fce573d6000803e3d6000fd5b505050506040513d601f19601f82011682018060405250810190610ff291906119ba565b61100e5760405162461bcd60e51b81526004016100b490612294565b6000609760009054906101000a90046001600160a01b03166001600160a01b0316638fb705308f6040518263ffffffff1660e01b81526004016110519190612261565b60206040518083038186803b15801561106957600080fd5b505afa15801561107d573d6000803e3d6000fd5b505050506040513d601f19601f820116820180604052508101906110a1919061199e565b9050806001600160a01b031663ced938e48e8e8e8e8e8e8e8e8e8e6040518b63ffffffff1660e01b81526004016110e19a99989796959493929190612183565b600060405180830381600087803b1580156110fb57600080fd5b505af115801561110f573d6000803e3d6000fd5b5050505061111b6116cb565b8d60008151811061112857fe5b60209081029190910181015161ffff16908201526001600160a01b038b1660a08201528b518c9060009061115857fe5b60200260200101518160600181815250508c60008151811061117657fe5b602002602001015161ffff168160e00181815250508d60008151811061119857fe5b602002602001015161ffff16816020018181525050898160800181815250508e6040516111c59190612065565b60405180910390207f6ad877da960863c545c5ff113e1273ef8f59330f79ffe3a1e3efef8e0aabb718826040516111fc9190612364565b60405180910390a2505050505050505050505050505050565b61121d61132a565b6001600160a01b031661122e610900565b6001600160a01b031614611289576040805162461bcd60e51b815260206004820181905260248201527f4f776e61626c653a2063616c6c6572206973206e6f7420746865206f776e6572604482015290519081900360640190fd5b6001600160a01b0381166112ce5760405162461bcd60e51b81526004018080602001828103825260268152602001806124636026913960400191505060405180910390fd5b6033546040516001600160a01b038084169216907f8be0079c531659141344cd1fd0a4f28419497f9722a3daafe3b4186f6b6457e090600090a3603380546001600160a01b0319166001600160a01b0392909216919091179055565b3390565b600061133930611486565b15905090565b600054610100900460ff1680611358575061135861132e565b80611366575060005460ff16155b6113a15760405162461bcd60e51b815260040180806020018281038252602e815260200180612489602e913960400191505060405180910390fd5b600054610100900460ff161580156113cc576000805460ff1961ff0019909116610100171660011790555b6113d461148c565b6113dc61152c565b80156113ee576000805461ff00191690555b50565b600054610100900460ff168061140a575061140a61132e565b80611418575060005460ff16155b6114535760405162461bcd60e51b815260040180806020018281038252602e815260200180612489602e913960400191505060405180910390fd5b600054610100900460ff1615801561147e576000805460ff1961ff0019909116610100171660011790555b6113dc611625565b3b151590565b600054610100900460ff16806114a557506114a561132e565b806114b3575060005460ff16155b6114ee5760405162461bcd60e51b815260040180806020018281038252602e815260200180612489602e913960400191505060405180910390fd5b600054610100900460ff161580156113dc576000805460ff1961ff00199091166101001716600117905580156113ee576000805461ff001916905550565b600054610100900460ff1680611545575061154561132e565b80611553575060005460ff16155b61158e5760405162461bcd60e51b815260040180806020018281038252602e815260200180612489602e913960400191505060405180910390fd5b600054610100900460ff161580156115b9576000805460ff1961ff0019909116610100171660011790555b60006115c361132a565b603380546001600160a01b0319166001600160a01b038316908117909155604051919250906000907f8be0079c531659141344cd1fd0a4f28419497f9722a3daafe3b4186f6b6457e0908290a35080156113ee576000805461ff001916905550565b600054610100900460ff168061163e575061163e61132e565b8061164c575060005460ff16155b6116875760405162461bcd60e51b815260040180806020018281038252602e815260200180612489602e913960400191505060405180910390fd5b600054610100900460ff161580156116b2576000805460ff1961ff0019909116610100171660011790555b600160655580156113ee576000805461ff001916905550565b6040805161014081018252600080825260208201819052918101829052606081018290526080810182905260a0810182905260c0810182905260e08101829052610100810182905261012081019190915290565b6040518060e00160405280600081526020016000815260200160008152602001600081526020016000815260200160008152602001600081525090565b8035610ee28161243f565b8051610ee28161243f565b600082601f830112611782578081fd5b8135611795611790826123f5565b6123d1565b8181529150602080830190848101818402860182018710156117b657600080fd5b60005b848110156117d5578135845292820192908201906001016117b9565b505050505092915050565b600082601f8301126117f0578081fd5b81356117fe611790826123f5565b81815291506020808301908481018184028601820187101561181f57600080fd5b60005b848110156117d55761183382611958565b84529282019290820190600101611822565b600082601f830112611855578081fd5b8135611863611790826123f5565b81815291506020808301908481018184028601820187101561188457600080fd5b60005b848110156117d5576118988261196a565b84529282019290820190600101611887565b60008083601f8401126118bb578182fd5b50813567ffffffffffffffff8111156118d2578182fd5b6020830191508360208285010111156118ea57600080fd5b9250929050565b600082601f830112611901578081fd5b813567ffffffffffffffff81111561191557fe5b611928601f8201601f19166020016123d1565b915080825283602082850101111561193f57600080fd5b8060208401602084013760009082016020015292915050565b803561ffff81168114610ee257600080fd5b803560ff81168114610ee257600080fd5b60006020828403121561198c578081fd5b81356119978161243f565b9392505050565b6000602082840312156119af578081fd5b81516119978161243f565b6000602082840312156119cb578081fd5b815161199781612454565b6000602082840312156119e7578081fd5b813567ffffffffffffffff8111156119fd578182fd5b611a09848285016118f1565b949350505050565b60008060008060008060008060006101008a8c031215611a2f578485fd5b893567ffffffffffffffff80821115611a46578687fd5b611a528d838e016118f1565b9a5060208c01359150611a648261243f565b90985060408b013590611a768261243f565b81985060608c01359750611a8c60808d01611958565b9650611a9a60a08d0161196a565b955060c08c0135945060e08c0135915080821115611ab6578384fd5b50611ac38c828d016118aa565b915080935050809150509295985092959850929598565b600080600060608486031215611aee578081fd5b833567ffffffffffffffff811115611b04578182fd5b611b10868287016118f1565b9350506020840135611b218161243f565b91506040840135611b3181612454565b809150509250925092565b60008060008060808587031215611b51578182fd5b843567ffffffffffffffff811115611b67578283fd5b611b73878288016118f1565b9450506020850135611b848161243f565b92506040850135611b9481612454565b9396929550929360600135925050565b60008060008060008060008060008060006101608c8e031215611bc5578485fd5b67ffffffffffffffff808d351115611bdb578586fd5b611be88e8e358f016118f1565b9b508060208e01351115611bfa578586fd5b611c0a8e60208f01358f016117e0565b9a508060408e01351115611c1c578586fd5b611c2c8e60408f01358f016117e0565b99508060608e01351115611c3e578586fd5b611c4e8e60608f01358f01611772565b9850611c5c60808e0161175c565b975060a08d013596508060c08e01351115611c75578586fd5b611c858e60c08f01358f01611772565b95508060e08e01351115611c97578283fd5b611ca78e60e08f01358f01611772565b9450806101008e01351115611cba578283fd5b611ccb8e6101008f01358f01611845565b9350806101208e01351115611cde578283fd5b611cef8e6101208f01358f01611772565b9250806101408e01351115611d02578182fd5b50611d148d6101408e01358e01611772565b90509295989b509295989b9093969950565b60008060008060008060008060e0898b031215611d41578182fd5b883567ffffffffffffffff80821115611d58578384fd5b611d648c838d016118f1565b995060208b0135985060408b0135975060608b01359150611d848261243f565b90955060808a013590611d968261243f565b90945060a08a013590611da88261243f565b90935060c08a01359080821115611dbd578384fd5b50611dca8b828c016118aa565b999c989b5096995094979396929594505050565b600060e08284031215611def578081fd5b60405160e0810181811067ffffffffffffffff82111715611e0c57fe5b8060405250825181526020830151602082015260408301516040820152606083015160608201526080830151608082015260a083015160a082015260c083015160c08201528091505092915050565b6000610140808385031215611e6e578182fd5b611e77816123d1565b90508251815260208301516020820152604083015160408201526060830151606082015260808301516080820152611eb160a08401611767565b60a0820152611ec260c08401611767565b60c082015260e083015160e0820152610100808401518183015250610120611eeb818501611767565b908201529392505050565b600060208284031215611f07578081fd5b5051919050565b6001600160a01b03169052565b6000815180845260208085019450808401835b83811015611f4a57815187529582019590820190600101611f2e565b509495945050505050565b6000815180845260208085019450808401835b83811015611f4a57815161ffff1687529582019590820190600101611f68565b6000815180845260208085019450808401835b83811015611f4a57815160ff1687529582019590820190600101611f9b565b60008284528282602086013780602084860101526020601f19601f85011685010190509392505050565b805182526020810151602083015260408101516040830152606081015160608301526080810151608083015260a081015161202260a0840182611f0e565b5060c081015161203560c0840182611f0e565b5060e081015160e08301526101008082015181840152506101208082015161205f82850182611f0e565b50505050565b60008251612077818460208701612413565b9190910192915050565b6001600160a01b0391909116815260200190565b6001600160a01b038981168252881660208201526040810187905261ffff8616606082015260ff8516608082015260a0810184905260e060c082018190526000906120e39083018486611fba565b9a9950505050505050505050565b6001600160a01b039290921682521515602082015260400190565b6001600160a01b03949094168452602084019290925215156040830152606082015260800190565b6020808252825182820181905260009190848201906040850190845b8181101561217757612163838551611fe4565b928401926101409290920191600101612150565b50909695505050505050565b60006101408083526121978184018e611f55565b905082810360208401526121ab818d611f55565b905082810360408401526121bf818c611f1b565b6001600160a01b038b166060850152608084018a905283810360a085015290506121e98189611f1b565b905082810360c08401526121fd8188611f1b565b905082810360e08401526122118187611f88565b90508281036101008401526122268186611f1b565b905082810361012084015261223b8185611f1b565b9d9c50505050505050505050505050565b6001600160e01b031991909116815260200190565b6000602082528251806020840152612280816040850160208701612413565b601f01601f19169190910160400192915050565b60208082526032908201527f4164647265737320646f6573206e6f7420696d706c656d656e742020494469736040820152717472696275746f7220696e7465726661636560701b606082015260800190565b602080825260169082015275119d5b98dd1a5bdb881b9bdd081cdd5c1c1bdc9d195960521b604082015260600190565b600060e082019050825182526020830151602083015260408301516040830152606083015160608301526080830151608083015260a083015160a083015260c083015160c083015292915050565b61014081016123738284611fe4565b92915050565b90815260200190565b878152602081018790526001600160a01b03868116604083015285811660608301528416608082015260c060a082018190526000906123c49083018486611fba565b9998505050505050505050565b60405181810167ffffffffffffffff811182821017156123ed57fe5b604052919050565b600067ffffffffffffffff82111561240957fe5b5060209081020190565b60005b8381101561242e578181015183820152602001612416565b8381111561205f5750506000910152565b6001600160a01b03811681146113ee57600080fd5b80151581146113ee57600080fdfe4f776e61626c653a206e6577206f776e657220697320746865207a65726f2061646472657373496e697469616c697a61626c653a20636f6e747261637420697320616c726561647920696e697469616c697a6564a264697066735822122055d495d08251dc0a9c5294eb2084b46de909cf1064701f4b4eab1d83e813da8464736f6c63430007040033",
  "immutableReferences": {},
  "source": "/*\n    Copyright (C) 2021 Brightunion.io\n\n    This program is free software: you can redistribute it and/or modify\n    it under the terms of the GNU General Public License as published by\n    the Free Software Foundation, either version 3 of the License, or\n    (at your option) any later version.\n\n    This program is distributed in the hope that it will be useful,\n    but WITHOUT ANY WARRANTY; without even the implied warranty of\n    MERCHANTABILITY or FITNESS FOR A PARTICULAR PURPOSE.  See the\n    GNU General Public License for more details.\n\n    You should have received a copy of the GNU General Public License\n    along with this program.  If not, see http://www.gnu.org/licenses/\n*/\n\n// SPDX-License-Identifier: GPL-3.0\n\npragma solidity 0.7.4;\npragma experimental ABIEncoderV2;\n\nimport \"@openzeppelin/contracts-upgradeable/proxy/Initializable.sol\";\nimport \"@openzeppelin/contracts-upgradeable/access/OwnableUpgradeable.sol\";\nimport \"@openzeppelin/contracts-upgradeable/utils/ReentrancyGuardUpgradeable.sol\";\nimport \"@openzeppelin/contracts-upgradeable/math/MathUpgradeable.sol\";\nimport \"@openzeppelin/contracts-upgradeable/math/SafeMathUpgradeable.sol\";\nimport \"./DistributorRegistry.sol\";\nimport \"./IDistributor.sol\";\n\n\ncontract Distributors is\n    Initializable,\n    OwnableUpgradeable,\n    ReentrancyGuardUpgradeable\n{\n    using MathUpgradeable for uint256;\n    using SafeMathUpgradeable for uint256;\n\n    DistributorRegistry public registry;\n    bytes4 private constant IID_IDISTIBUTOR = type(IDistributor).interfaceId;\n\n    event BoughtCover(\n        string indexed provider,\n        IDistributor.Cover\n        );\n        \n    event ErrorNotHandled(\n        address indexed owner,\n        bytes distributor,\n        bytes reason\n    );\n    \n    \n    /// @dev Init the protocol with registry address\n    /// @param _registry Address of the registry contract\n    function initialize(\n            address payable _registry\n        ) public initializer {\n        __Ownable_init();\n        __ReentrancyGuard_init();\n            registry = DistributorRegistry(_registry);\n    }\n    \n    /// @dev Requires distributor address to implement the IDistributor interface OR \"Bright Interface\"\n    modifier supportsIDistributor(string memory _distributorName){\n        IDistributor distributor = IDistributor(registry.distributors(_distributorName));\n        require(distributor.supportsInterface(IID_IDISTIBUTOR),\n                \"Address does not implement  IDistributor interface\" );\n                _;\n    }\n    \n    function getDistributorAddress(string memory _distributorName) public view returns(address){\n        return registry.distributors(_distributorName);\n    }\n    \n    /// @dev Gets the cover count owned by spec address\n    /// @param _distributorName String Distributor name on lower case ie: nexus, bridge etc...\n    /// @param _owner The Owner ethereum address\n    /// @param _isActive boolean value to get Active/Unactive covers\n    /// @return integer count number\n    function getCoversCount(string memory _distributorName, address _owner, bool _isActive) \n        public view supportsIDistributor(_distributorName) \n        returns(uint256){\n            \n             IDistributor distributor = IDistributor(registry.distributors(_distributorName));\n              uint256 _ownersCoverCount = distributor.getCoverCount(_owner,_isActive);\n        \n        return _ownersCoverCount;\n    }\n\n    /// @dev Gets all the covers for spec address\n    /// @param _owner Owner ethereum address\n    /// @param _isActive boolean value to get Active/Unactive covers\n    /// @param _limitLoop integer large number to avoid running out of gas\n    /// @return IDistributor.Cover[] array of covers objects, refer to IDistributors interface\n    function getCovers(\n        string memory _distributorName,\n        address _owner,\n        bool _isActive,\n        uint256 _limitLoop\n        ) public supportsIDistributor(_distributorName)\n          view returns (IDistributor.Cover[] memory) {\n          IDistributor distributor = IDistributor(registry.distributors(_distributorName));\n          uint256 _ownersCoverCount = distributor.getCoverCount(_owner,_isActive);\n    \n            uint256 limit = 0;\n                if(_ownersCoverCount > _limitLoop){\n                    limit = _limitLoop;\n                }else{\n                    limit = _ownersCoverCount;\n                }\n                \n            IDistributor.Cover[] memory userCovers = new IDistributor.Cover[](limit);\n            \n            for(uint _coverId = 0; _coverId < limit ; _coverId++){\n                IDistributor.Cover memory cover = distributor.getCover(_owner,_coverId,_isActive,_limitLoop); \n                userCovers[_coverId] = cover;\n            }\n            return userCovers;\n    }\n    \n    /// @dev Gets single cover quote\n    /// @param _distributorName string name of the protocol/distributor to buy from\n    /// @param _sumAssured Total Sum covered\n    /// @param _coverPeriod Covered period of the risk coverage\n    /// @param _contractAddress Cover's reference or contract address\n    /// @param _coverAsset Asset address of currency to pay with\n    /// @param _nexusCoverable cover ref Address\n    /// @param _data encode data\n    /// @return Distributor.Cover array of Cover objects, refer to IDistributors interface\n    function getQuote(\n        string memory _distributorName,\n        uint256 _sumAssured,\n        uint256 _coverPeriod,\n        address _contractAddress,\n        address _coverAsset,\n        address _nexusCoverable,\n        bytes calldata _data\n        ) public supportsIDistributor(_distributorName) \n        view returns(\n                IDistributor.CoverQuote memory\n            ){\n                 IDistributor distributor = IDistributor(registry.distributors(_distributorName));\n        \n                 return distributor.getQuote(\n                                        _sumAssured,\n                                        _coverPeriod,\n                                        _contractAddress,\n                                        _coverAsset,\n                                        _nexusCoverable,\n                                        _data);\n            }\n\n    /// @dev Buy a ssingle cover\n    /// @param _distributorName string name of the protocol/distributor to buy from\n    /// @param _contractAddress Cover's reference or contract address\n    /// @param _coverAsset Asset address of currency to pay with\n    /// @param _sumAssured Total Sum covered\n    /// @param _coverPeriod Covered period of the risk coverage\n    /// @param _coverType Cover's specific protocol type\n    /// @param _maxPriceWithFee Cover's total premium\n    /// @param _data calldata encoded data params\n    function buyCover(\n        string memory _distributorName,\n        address _contractAddress,\n        address _coverAsset,\n        uint256 _sumAssured,\n        uint16 _coverPeriod,\n        uint8 _coverType,\n        uint256 _maxPriceWithFee,\n        bytes calldata _data\n    ) public supportsIDistributor(_distributorName) payable {\n        IDistributor distributor = IDistributor(registry.distributors(_distributorName));\n        distributor.buyCover(     _contractAddress,\n                                  _coverAsset,\n                                  _sumAssured,\n                                  _coverPeriod,\n                                  _coverType,\n                                  _maxPriceWithFee,\n                                  _data);\n                                  \n        IDistributor.Cover memory cover;\n        cover.contractAddress = _contractAddress;\n        cover.currency = _coverAsset;\n        cover.coverAmount = _sumAssured;\n        cover.expiration = _coverPeriod;\n        cover.productId = _coverType;\n        cover.premium = _maxPriceWithFee;\n        \n        emit BoughtCover(_distributorName,cover);\n    }\n\n    /// @dev  Buy Insurace Covers in bulk\n    /// @param  _distributorName string name of the protocol/distributor to buy from\n    /// @param  _products  Array Product Ids of covers\n    /// @param  _durationInDays Array Cover periods\n    /// @param  _amounts Array Covered sum amounts\n    /// @param  _currency address of the asset to pay with\n    /// @param  _premiumAmount uint256 Cover total price\n    /// @param  _helperParameters Array security params provided by confirmCover Insurace http api call\n    /// @param  _securityParameters Array security params provided by confirmCover Insurace http api call\n    /// @param  _v Array Private key ECDSA signature msg param\n    /// @param  _r Array Private key ECDSA signature msg param\n    /// @param  _s Array Private key ECDSA signature msg param\n    function buyCoverDecode(\n        string memory _distributorName,\n        uint16[] memory _products,\n        uint16[] memory _durationInDays,\n        uint256[] memory _amounts,\n        address _currency,\n        uint256 _premiumAmount,\n        uint256[] memory _helperParameters,\n        uint256[] memory _securityParameters,\n        uint8[] memory _v,\n        bytes32[] memory _r,\n        bytes32[] memory _s\n    ) public supportsIDistributor(_distributorName) payable {\n         IDistributor distributor = IDistributor(registry.distributors(_distributorName));\n         distributor.buyCoverDecode( \n                                      _products,\n                                      _durationInDays,\n                                      _amounts,\n                                      _currency,\n                                      _premiumAmount,\n                                      _helperParameters,\n                                      _securityParameters,\n                                      _v,\n                                      _r,\n                                      _s );\n        IDistributor.Cover memory cover;\n        cover.productId = _products[0];\n        cover.currency = _currency;\n        cover.coverAmount = _amounts[0];\n        cover.expiration = _durationInDays[0];\n        cover.productId = _products[0];\n        cover.premium = _premiumAmount;\n        \n        emit BoughtCover(_distributorName,cover);\n    }\n \n    fallback() external payable {\n        revert(\"Function not supported\");\n    }\n    \n}",
  "sourcePath": "/Users/danielguerrero/workspace/BRIGHT/distributors/contracts/Distributors.sol",
  "compiler": {
    "name": "solc",
    "version": "0.7.4+commit.3f05b770.Emscripten.clang"
  },
  "schemaVersion": "3.3.4",
  "updatedAt": "2021-10-22T04:56:35.422Z",
  "devdoc": {
    "kind": "dev",
    "methods": {
      "buyCover(string,address,address,uint256,uint16,uint8,uint256,bytes)": {
        "details": "Buy a ssingle cover",
        "params": {
          "_contractAddress": "Cover's reference or contract address",
          "_coverAsset": "Asset address of currency to pay with",
          "_coverPeriod": "Covered period of the risk coverage",
          "_coverType": "Cover's specific protocol type",
          "_data": "calldata encoded data params",
          "_distributorName": "string name of the protocol/distributor to buy from",
          "_maxPriceWithFee": "Cover's total premium",
          "_sumAssured": "Total Sum covered"
        }
      },
      "buyCoverDecode(string,uint16[],uint16[],uint256[],address,uint256,uint256[],uint256[],uint8[],bytes32[],bytes32[])": {
        "details": "Buy Insurace Covers in bulk",
        "params": {
          "_amounts": "Array Covered sum amounts",
          "_currency": "address of the asset to pay with",
          "_distributorName": "string name of the protocol/distributor to buy from",
          "_durationInDays": "Array Cover periods",
          "_helperParameters": "Array security params provided by confirmCover Insurace http api call",
          "_premiumAmount": "uint256 Cover total price",
          "_products": "Array Product Ids of covers",
          "_r": "Array Private key ECDSA signature msg param",
          "_s": "Array Private key ECDSA signature msg param",
          "_securityParameters": "Array security params provided by confirmCover Insurace http api call",
          "_v": "Array Private key ECDSA signature msg param"
        }
      },
      "getCovers(string,address,bool,uint256)": {
        "details": "Gets all the covers for spec address",
        "params": {
          "_isActive": "boolean value to get Active/Unactive covers",
          "_limitLoop": "integer large number to avoid running out of gas",
          "_owner": "Owner ethereum address"
        },
        "returns": {
          "_0": "IDistributor.Cover[] array of covers objects, refer to IDistributors interface"
        }
      },
      "getCoversCount(string,address,bool)": {
        "details": "Gets the cover count owned by spec address",
        "params": {
          "_distributorName": "String Distributor name on lower case ie: nexus, bridge etc...",
          "_isActive": "boolean value to get Active/Unactive covers",
          "_owner": "The Owner ethereum address"
        },
        "returns": {
          "_0": "integer count number"
        }
      },
      "getQuote(string,uint256,uint256,address,address,address,bytes)": {
        "details": "Gets single cover quote",
        "params": {
          "_contractAddress": "Cover's reference or contract address",
          "_coverAsset": "Asset address of currency to pay with",
          "_coverPeriod": "Covered period of the risk coverage",
          "_data": "encode data",
          "_distributorName": "string name of the protocol/distributor to buy from",
          "_nexusCoverable": "cover ref Address",
          "_sumAssured": "Total Sum covered"
        },
        "returns": {
          "_0": "Distributor.Cover array of Cover objects, refer to IDistributors interface"
        }
      },
      "initialize(address)": {
        "details": "Init the protocol with registry address",
        "params": {
          "_registry": "Address of the registry contract"
        }
      },
      "owner()": {
        "details": "Returns the address of the current owner."
      },
      "renounceOwnership()": {
        "details": "Leaves the contract without owner. It will not be possible to call `onlyOwner` functions anymore. Can only be called by the current owner. NOTE: Renouncing ownership will leave the contract without an owner, thereby removing any functionality that is only available to the owner."
      },
      "transferOwnership(address)": {
        "details": "Transfers ownership of the contract to a new account (`newOwner`). Can only be called by the current owner."
      }
    },
    "version": 1
  },
  "userdoc": {
    "kind": "user",
    "methods": {},
    "version": 1
  }
}