{
  "contractName": "Distributors",
  "abi": [
    {
      "anonymous": false,
      "inputs": [
        {
          "indexed": true,
          "internalType": "bytes32",
          "name": "provider",
          "type": "bytes32"
        },
        {
          "components": [
            {
              "internalType": "bytes32",
              "name": "coverType",
              "type": "bytes32"
            },
            {
              "internalType": "uint256",
              "name": "productId",
              "type": "uint256"
            },
            {
              "internalType": "bytes32",
              "name": "contractName",
              "type": "bytes32"
            },
            {
              "internalType": "uint256",
              "name": "coverAmount",
              "type": "uint256"
            },
            {
              "internalType": "uint256",
              "name": "premium",
              "type": "uint256"
            },
            {
              "internalType": "address",
              "name": "currency",
              "type": "address"
            },
            {
              "internalType": "address",
              "name": "contractAddress",
              "type": "address"
            },
            {
              "internalType": "uint256",
              "name": "expiration",
              "type": "uint256"
            },
            {
              "internalType": "uint256",
              "name": "status",
              "type": "uint256"
            },
            {
              "internalType": "address",
              "name": "refAddress",
              "type": "address"
            }
          ],
          "indexed": false,
          "internalType": "struct IDistributor.Cover",
          "name": "",
          "type": "tuple"
        }
      ],
      "name": "BoughtCover",
      "type": "event"
    },
    {
      "anonymous": false,
      "inputs": [
        {
          "indexed": true,
          "internalType": "address",
          "name": "owner",
          "type": "address"
        },
        {
          "indexed": false,
          "internalType": "bytes",
          "name": "distributor",
          "type": "bytes"
        },
        {
          "indexed": false,
          "internalType": "bytes",
          "name": "reason",
          "type": "bytes"
        }
      ],
      "name": "ErrorNotHandled",
      "type": "event"
    },
    {
      "anonymous": false,
      "inputs": [
        {
          "indexed": true,
          "internalType": "address",
          "name": "previousOwner",
          "type": "address"
        },
        {
          "indexed": true,
          "internalType": "address",
          "name": "newOwner",
          "type": "address"
        }
      ],
      "name": "OwnershipTransferred",
      "type": "event"
    },
    {
      "stateMutability": "payable",
      "type": "fallback"
    },
    {
      "inputs": [],
      "name": "IID_IERC165",
      "outputs": [
        {
          "internalType": "bytes4",
          "name": "",
          "type": "bytes4"
        }
      ],
      "stateMutability": "view",
      "type": "function"
    },
    {
      "inputs": [],
      "name": "_ownersCoverCount",
      "outputs": [
        {
          "internalType": "uint256",
          "name": "",
          "type": "uint256"
        }
      ],
      "stateMutability": "view",
      "type": "function"
    },
    {
      "inputs": [],
      "name": "owner",
      "outputs": [
        {
          "internalType": "address",
          "name": "",
          "type": "address"
        }
      ],
      "stateMutability": "view",
      "type": "function"
    },
    {
      "inputs": [],
      "name": "registry",
      "outputs": [
        {
          "internalType": "contract DistributorRegistry",
          "name": "",
          "type": "address"
        }
      ],
      "stateMutability": "view",
      "type": "function"
    },
    {
      "inputs": [],
      "name": "renounceOwnership",
      "outputs": [],
      "stateMutability": "nonpayable",
      "type": "function"
    },
    {
      "inputs": [
        {
          "internalType": "address",
          "name": "newOwner",
          "type": "address"
        }
      ],
      "name": "transferOwnership",
      "outputs": [],
      "stateMutability": "nonpayable",
      "type": "function"
    },
    {
      "inputs": [
        {
          "internalType": "address payable",
          "name": "_registry",
          "type": "address"
        }
      ],
      "name": "initialize",
      "outputs": [],
      "stateMutability": "nonpayable",
      "type": "function"
    },
    {
      "inputs": [
        {
          "internalType": "string",
          "name": "_distributorName",
          "type": "string"
        }
      ],
      "name": "getDistAddress",
      "outputs": [
        {
          "internalType": "address",
          "name": "",
          "type": "address"
        }
      ],
      "stateMutability": "view",
      "type": "function"
    },
    {
      "inputs": [
        {
          "internalType": "string",
          "name": "_distributorName",
          "type": "string"
        },
        {
          "internalType": "address",
          "name": "_owner",
          "type": "address"
        },
        {
          "internalType": "bool",
          "name": "_isActive",
          "type": "bool"
        }
      ],
      "name": "getCoversCount",
      "outputs": [
        {
          "internalType": "uint256",
          "name": "",
          "type": "uint256"
        }
      ],
      "stateMutability": "view",
      "type": "function"
    },
    {
      "inputs": [
        {
          "internalType": "string",
          "name": "_distributorName",
          "type": "string"
        },
        {
          "internalType": "address",
          "name": "_owner",
          "type": "address"
        },
        {
          "internalType": "bool",
          "name": "_isActive",
          "type": "bool"
        },
        {
          "internalType": "uint256",
          "name": "_limitLoop",
          "type": "uint256"
        }
      ],
      "name": "getCovers",
      "outputs": [
        {
          "components": [
            {
              "internalType": "bytes32",
              "name": "coverType",
              "type": "bytes32"
            },
            {
              "internalType": "uint256",
              "name": "productId",
              "type": "uint256"
            },
            {
              "internalType": "bytes32",
              "name": "contractName",
              "type": "bytes32"
            },
            {
              "internalType": "uint256",
              "name": "coverAmount",
              "type": "uint256"
            },
            {
              "internalType": "uint256",
              "name": "premium",
              "type": "uint256"
            },
            {
              "internalType": "address",
              "name": "currency",
              "type": "address"
            },
            {
              "internalType": "address",
              "name": "contractAddress",
              "type": "address"
            },
            {
              "internalType": "uint256",
              "name": "expiration",
              "type": "uint256"
            },
            {
              "internalType": "uint256",
              "name": "status",
              "type": "uint256"
            },
            {
              "internalType": "address",
              "name": "refAddress",
              "type": "address"
            }
          ],
          "internalType": "struct IDistributor.Cover[]",
          "name": "covers",
          "type": "tuple[]"
        }
      ],
      "stateMutability": "view",
      "type": "function"
    },
    {
      "inputs": [
        {
          "internalType": "string",
          "name": "_distributorName",
          "type": "string"
        },
        {
          "internalType": "uint256",
          "name": "_interfaceCompliant1",
          "type": "uint256"
        },
        {
          "internalType": "uint256",
          "name": "_interfaceCompliant2",
          "type": "uint256"
        },
        {
          "internalType": "uint256",
          "name": "_sumAssured",
          "type": "uint256"
        },
        {
          "internalType": "uint256",
          "name": "_coverPeriod",
          "type": "uint256"
        },
        {
          "internalType": "address",
          "name": "_contractAddress",
          "type": "address"
        },
        {
          "internalType": "address",
          "name": "_coverAsset",
          "type": "address"
        },
        {
          "internalType": "address",
          "name": "_nexusCoverable",
          "type": "address"
        },
        {
          "internalType": "bytes",
          "name": "_data",
          "type": "bytes"
        }
      ],
      "name": "getQuote",
      "outputs": [
        {
          "components": [
            {
              "internalType": "uint256",
              "name": "prop1",
              "type": "uint256"
            },
            {
              "internalType": "uint256",
              "name": "prop2",
              "type": "uint256"
            },
            {
              "internalType": "uint256",
              "name": "prop3",
              "type": "uint256"
            },
            {
              "internalType": "uint256",
              "name": "prop4",
              "type": "uint256"
            },
            {
              "internalType": "uint256",
              "name": "prop5",
              "type": "uint256"
            },
            {
              "internalType": "uint256",
              "name": "prop6",
              "type": "uint256"
            },
            {
              "internalType": "uint256",
              "name": "prop7",
              "type": "uint256"
            }
          ],
          "internalType": "struct IDistributor.CoverQuote",
          "name": "",
          "type": "tuple"
        }
      ],
      "stateMutability": "view",
      "type": "function"
    },
    {
      "inputs": [
        {
          "internalType": "string",
          "name": "_distributorName",
          "type": "string"
        },
        {
          "internalType": "address",
          "name": "contractAddress",
          "type": "address"
        },
        {
          "internalType": "address",
          "name": "coverAsset",
          "type": "address"
        },
        {
          "internalType": "uint256",
          "name": "sumAssured",
          "type": "uint256"
        },
        {
          "internalType": "uint16",
          "name": "coverPeriod",
          "type": "uint16"
        },
        {
          "internalType": "uint8",
          "name": "coverType",
          "type": "uint8"
        },
        {
          "internalType": "uint256",
          "name": "maxPriceWithFee",
          "type": "uint256"
        },
        {
          "internalType": "bytes",
          "name": "data",
          "type": "bytes"
        }
      ],
      "name": "buyCover",
      "outputs": [],
      "stateMutability": "payable",
      "type": "function"
    },
    {
      "inputs": [
        {
          "internalType": "string",
          "name": "_distributorName",
          "type": "string"
        },
        {
          "internalType": "uint16[]",
          "name": "products",
          "type": "uint16[]"
        },
        {
          "internalType": "uint16[]",
          "name": "durationInDays",
          "type": "uint16[]"
        },
        {
          "internalType": "uint256[]",
          "name": "amounts",
          "type": "uint256[]"
        },
        {
          "internalType": "address",
          "name": "currency",
          "type": "address"
        },
        {
          "internalType": "uint256",
          "name": "premiumAmount",
          "type": "uint256"
        },
        {
          "internalType": "uint256[]",
          "name": "helperParameters",
          "type": "uint256[]"
        },
        {
          "internalType": "uint256[]",
          "name": "securityParameters",
          "type": "uint256[]"
        },
        {
          "internalType": "uint8[]",
          "name": "v",
          "type": "uint8[]"
        },
        {
          "internalType": "bytes32[]",
          "name": "r",
          "type": "bytes32[]"
        },
        {
          "internalType": "bytes32[]",
          "name": "s",
          "type": "bytes32[]"
        }
      ],
      "name": "buyCoverDecode",
      "outputs": [],
      "stateMutability": "payable",
      "type": "function"
    }
  ],
  "bytecode": "0x608060405234801561001057600080fd5b50611d6c806100206000396000f3fe6080604052600436106100c25760003560e01c80638da5cb5b1161007f578063c4d66de811610059578063c4d66de814610216578063cfb6443014610236578063dc84d2731461024b578063f2fde38b1461025e576100c2565b80638da5cb5b146101b2578063a4027838146101c7578063b93473c3146101e9576100c2565b80630d68bd74146100e35780633c0077a8146101195780635181678e14610146578063606042451461015b578063715018a6146101885780637b1039991461019d575b60405162461bcd60e51b81526004016100da90611bac565b60405180910390fd5b3480156100ef57600080fd5b506101036100fe3660046112e8565b61027e565b6040516101109190611905565b60405180910390f35b34801561012557600080fd5b5061013961013436600461144a565b610307565b60405161011091906119b8565b610159610154366004611323565b610541565b005b34801561016757600080fd5b5061017b610176366004611632565b61063d565b6040516101109190611be3565b34801561019457600080fd5b50610159610765565b3480156101a957600080fd5b50610103610823565b3480156101be57600080fd5b50610103610832565b3480156101d357600080fd5b506101dc610841565b6040516101109190611b44565b3480156101f557600080fd5b506102096102043660046113ec565b61084c565b6040516101109190611c31565b34801561022257600080fd5b506101596102313660046112a9565b61095d565b34801561024257600080fd5b50610209610a2b565b6101596102593660046114b0565b610a31565b34801561026a57600080fd5b506101596102793660046112a9565b610b33565b6097546040516308fb705360e41b81526000916001600160a01b031690638fb70530906102af908590600401611b59565b60206040518083038186803b1580156102c757600080fd5b505afa1580156102db573d6000803e3d6000fd5b505050506040513d601f19601f820116820180604052508101906102ff91906112cc565b90505b919050565b6097546040516308fb705360e41b81526060916000916001600160a01b0390911690638fb705309061033d908990600401611b59565b60206040518083038186803b15801561035557600080fd5b505afa158015610369573d6000803e3d6000fd5b505050506040513d601f19601f8201168201806040525081019061038d91906112cc565b90506000816001600160a01b031663b194270f87876040518363ffffffff1660e01b81526004016103bf929190611975565b60206040518083038186803b1580156103d757600080fd5b505afa1580156103eb573d6000803e3d6000fd5b505050506040513d601f19601f8201168201806040525081019061040f9190611817565b9050600084821115610422575083610425565b50805b60608167ffffffffffffffff8111801561043e57600080fd5b5060405190808252806020026020018201604052801561047857816020015b610465610fe9565b81526020019060019003908161045d5790505b50905060005b828110156105345761048e610fe9565b60405163ac496c7b60e01b81526001600160a01b0387169063ac496c7b906104c0908d9086908e908e90600401611990565b6101406040518083038186803b1580156104d957600080fd5b505afa1580156104ed573d6000803e3d6000fd5b505050506040513d601f19601f82011682018060405250810190610511919061177c565b90508083838151811061052057fe5b60209081029190910101525060010161047e565b5098975050505050505050565b6097546040516308fb705360e41b81526000916001600160a01b031690638fb7053090610572908d90600401611b59565b60206040518083038186803b15801561058a57600080fd5b505afa15801561059e573d6000803e3d6000fd5b505050506040513d601f19601f820116820180604052508101906105c291906112cc565b604051636c542b7760e11b81529091506001600160a01b0382169063d8a856ee906105ff908c908c908c908c908c908c908c908c90600401611919565b600060405180830381600087803b15801561061957600080fd5b505af115801561062d573d6000803e3d6000fd5b5050505050505050505050505050565b61064561103d565b6097546040516308fb705360e41b81526000916001600160a01b031690638fb7053090610676908f90600401611b59565b60206040518083038186803b15801561068e57600080fd5b505afa1580156106a2573d6000803e3d6000fd5b505050506040513d601f19601f820116820180604052508101906106c691906112cc565b604051630495c2f760e31b81529091506001600160a01b038216906324ae17b890610705908e908e908e908e908e908e908e908e908e90600401611c3a565b60e06040518083038186803b15801561071d57600080fd5b505afa158015610731573d6000803e3d6000fd5b505050506040513d601f19601f8201168201806040525081019061075591906116ff565b9c9b505050505050505050505050565b61076d610c48565b6001600160a01b031661077e610832565b6001600160a01b0316146107d9576040805162461bcd60e51b815260206004820181905260248201527f4f776e61626c653a2063616c6c6572206973206e6f7420746865206f776e6572604482015290519081900360640190fd5b6033546040516000916001600160a01b0316907f8be0079c531659141344cd1fd0a4f28419497f9722a3daafe3b4186f6b6457e0908390a3603380546001600160a01b0319169055565b6097546001600160a01b031681565b6033546001600160a01b031690565b632efdfb6160e01b81565b6097546040516308fb705360e41b815260009182916001600160a01b0390911690638fb7053090610881908890600401611b59565b60206040518083038186803b15801561089957600080fd5b505afa1580156108ad573d6000803e3d6000fd5b505050506040513d601f19601f820116820180604052508101906108d191906112cc565b90506000816001600160a01b031663b194270f86866040518363ffffffff1660e01b8152600401610903929190611975565b60206040518083038186803b15801561091b57600080fd5b505afa15801561092f573d6000803e3d6000fd5b505050506040513d601f19601f820116820180604052508101906109539190611817565b9695505050505050565b600054610100900460ff16806109765750610976610c4c565b80610984575060005460ff16155b6109bf5760405162461bcd60e51b815260040180806020018281038252602e815260200180611d09602e913960400191505060405180910390fd5b600054610100900460ff161580156109ea576000805460ff1961ff0019909116610100171660011790555b6109f2610c5d565b6109fa610d0f565b609780546001600160a01b0319166001600160a01b0384161790558015610a27576000805461ff00191690555b5050565b60985481565b6097546040516308fb705360e41b81526000916001600160a01b031690638fb7053090610a62908f90600401611b59565b60206040518083038186803b158015610a7a57600080fd5b505afa158015610a8e573d6000803e3d6000fd5b505050506040513d601f19601f82011682018060405250810190610ab291906112cc565b6040516333b64e3960e21b81529091506001600160a01b0382169063ced938e490610af3908e908e908e908e908e908e908e908e908e908e90600401611a7b565b600060405180830381600087803b158015610b0d57600080fd5b505af1158015610b21573d6000803e3d6000fd5b50505050505050505050505050505050565b610b3b610c48565b6001600160a01b0316610b4c610832565b6001600160a01b031614610ba7576040805162461bcd60e51b815260206004820181905260248201527f4f776e61626c653a2063616c6c6572206973206e6f7420746865206f776e6572604482015290519081900360640190fd5b6001600160a01b038116610bec5760405162461bcd60e51b8152600401808060200182810382526026815260200180611ce36026913960400191505060405180910390fd5b6033546040516001600160a01b038084169216907f8be0079c531659141344cd1fd0a4f28419497f9722a3daafe3b4186f6b6457e090600090a3603380546001600160a01b0319166001600160a01b0392909216919091179055565b3390565b6000610c5730610da4565b15905090565b600054610100900460ff1680610c765750610c76610c4c565b80610c84575060005460ff16155b610cbf5760405162461bcd60e51b815260040180806020018281038252602e815260200180611d09602e913960400191505060405180910390fd5b600054610100900460ff16158015610cea576000805460ff1961ff0019909116610100171660011790555b610cf2610daa565b610cfa610e4a565b8015610d0c576000805461ff00191690555b50565b600054610100900460ff1680610d285750610d28610c4c565b80610d36575060005460ff16155b610d715760405162461bcd60e51b815260040180806020018281038252602e815260200180611d09602e913960400191505060405180910390fd5b600054610100900460ff16158015610d9c576000805460ff1961ff0019909116610100171660011790555b610cfa610f43565b3b151590565b600054610100900460ff1680610dc35750610dc3610c4c565b80610dd1575060005460ff16155b610e0c5760405162461bcd60e51b815260040180806020018281038252602e815260200180611d09602e913960400191505060405180910390fd5b600054610100900460ff16158015610cfa576000805460ff1961ff0019909116610100171660011790558015610d0c576000805461ff001916905550565b600054610100900460ff1680610e635750610e63610c4c565b80610e71575060005460ff16155b610eac5760405162461bcd60e51b815260040180806020018281038252602e815260200180611d09602e913960400191505060405180910390fd5b600054610100900460ff16158015610ed7576000805460ff1961ff0019909116610100171660011790555b6000610ee1610c48565b603380546001600160a01b0319166001600160a01b038316908117909155604051919250906000907f8be0079c531659141344cd1fd0a4f28419497f9722a3daafe3b4186f6b6457e0908290a3508015610d0c576000805461ff001916905550565b600054610100900460ff1680610f5c5750610f5c610c4c565b80610f6a575060005460ff16155b610fa55760405162461bcd60e51b815260040180806020018281038252602e815260200180611d09602e913960400191505060405180910390fd5b600054610100900460ff16158015610fd0576000805460ff1961ff0019909116610100171660011790555b60016065558015610d0c576000805461ff001916905550565b6040805161014081018252600080825260208201819052918101829052606081018290526080810182905260a0810182905260c0810182905260e08101829052610100810182905261012081019190915290565b6040518060e00160405280600081526020016000815260200160008152602001600081526020016000815260200160008152602001600081525090565b803561030281611ccd565b805161030281611ccd565b600082601f8301126110a0578081fd5b81356110b36110ae82611caf565b611c8b565b8181529150602080830190848101818402860182018710156110d457600080fd5b60005b848110156110f3578135845292820192908201906001016110d7565b505050505092915050565b600082601f83011261110e578081fd5b813561111c6110ae82611caf565b81815291506020808301908481018184028601820187101561113d57600080fd5b60005b848110156110f35761115182611286565b84529282019290820190600101611140565b600082601f830112611173578081fd5b81356111816110ae82611caf565b8181529150602080830190848101818402860182018710156111a257600080fd5b60005b848110156110f3576111b682611298565b845292820192908201906001016111a5565b8035801515811461030257600080fd5b60008083601f8401126111e9578182fd5b50813567ffffffffffffffff811115611200578182fd5b60208301915083602082850101111561121857600080fd5b9250929050565b600082601f83011261122f578081fd5b813567ffffffffffffffff81111561124357fe5b611256601f8201601f1916602001611c8b565b915080825283602082850101111561126d57600080fd5b8060208401602084013760009082016020015292915050565b803561ffff8116811461030257600080fd5b803560ff8116811461030257600080fd5b6000602082840312156112ba578081fd5b81356112c581611ccd565b9392505050565b6000602082840312156112dd578081fd5b81516112c581611ccd565b6000602082840312156112f9578081fd5b813567ffffffffffffffff81111561130f578182fd5b61131b8482850161121f565b949350505050565b60008060008060008060008060006101008a8c031215611341578485fd5b893567ffffffffffffffff80821115611358578687fd5b6113648d838e0161121f565b9a5060208c0135915061137682611ccd565b90985060408b01359061138882611ccd565b81985060608c0135975061139e60808d01611286565b96506113ac60a08d01611298565b955060c08c0135945060e08c01359150808211156113c8578384fd5b506113d58c828d016111d8565b915080935050809150509295985092959850929598565b600080600060608486031215611400578081fd5b833567ffffffffffffffff811115611416578182fd5b6114228682870161121f565b935050602084013561143381611ccd565b9150611441604085016111c8565b90509250925092565b6000806000806080858703121561145f578182fd5b843567ffffffffffffffff811115611475578283fd5b6114818782880161121f565b945050602085013561149281611ccd565b92506114a0604086016111c8565b9396929550929360600135925050565b60008060008060008060008060008060006101608c8e0312156114d1578485fd5b67ffffffffffffffff808d3511156114e7578586fd5b6114f48e8e358f0161121f565b9b508060208e01351115611506578586fd5b6115168e60208f01358f016110fe565b9a508060408e01351115611528578586fd5b6115388e60408f01358f016110fe565b99508060608e0135111561154a578586fd5b61155a8e60608f01358f01611090565b985061156860808e0161107a565b975060a08d013596508060c08e01351115611581578586fd5b6115918e60c08f01358f01611090565b95508060e08e013511156115a3578283fd5b6115b38e60e08f01358f01611090565b9450806101008e013511156115c6578283fd5b6115d78e6101008f01358f01611163565b9350806101208e013511156115ea578283fd5b6115fb8e6101208f01358f01611090565b9250806101408e0135111561160e578182fd5b506116208d6101408e01358e01611090565b90509295989b509295989b9093969950565b6000806000806000806000806000806101208b8d031215611651578384fd5b8a3567ffffffffffffffff80821115611668578586fd5b6116748e838f0161121f565b9b5060208d01359a5060408d0135995060608d0135985060808d0135975060a08d013591506116a282611ccd565b90955060c08c0135906116b482611ccd565b8195506116c360e08e0161107a565b94506101008d01359150808211156116d9578384fd5b506116e68d828e016111d8565b915080935050809150509295989b9194979a5092959850565b600060e08284031215611710578081fd5b60405160e0810181811067ffffffffffffffff8211171561172d57fe5b8060405250825181526020830151602082015260408301516040820152606083015160608201526080830151608082015260a083015160a082015260c083015160c08201528091505092915050565b600061014080838503121561178f578182fd5b61179881611c8b565b905082518152602083015160208201526040830151604082015260608301516060820152608083015160808201526117d260a08401611085565b60a08201526117e360c08401611085565b60c082015260e083015160e082015261010080840151818301525061012061180c818501611085565b908201529392505050565b600060208284031215611828578081fd5b5051919050565b6001600160a01b03169052565b6000815180845260208085019450808401835b8381101561186b5781518752958201959082019060010161184f565b509495945050505050565b6000815180845260208085019450808401835b8381101561186b57815161ffff1687529582019590820190600101611889565b6000815180845260208085019450808401835b8381101561186b57815160ff16875295820195908201906001016118bc565b60008284528282602086013780602084860101526020601f19601f85011685010190509392505050565b6001600160a01b0391909116815260200190565b6001600160a01b038981168252881660208201526040810187905261ffff8616606082015260ff8516608082015260a0810184905260e060c0820181905260009061196790830184866118db565b9a9950505050505050505050565b6001600160a01b039290921682521515602082015260400190565b6001600160a01b03949094168452602084019290925215156040830152606082015260800190565b602080825282518282018190526000919060409081850190868401855b82811015611a6e5781518051855286810151878601528581015186860152606080820151908601526080808201519086015260a080820151611a198288018261182f565b505060c080820151611a2d8288018261182f565b505060e0818101519086015261010080820151908601526101209081015190611a588187018361182f565b50506101409390930192908501906001016119d5565b5091979650505050505050565b6000610140808352611a8f8184018e611876565b90508281036020840152611aa3818d611876565b90508281036040840152611ab7818c61183c565b6001600160a01b038b166060850152608084018a905283810360a08501529050611ae1818961183c565b905082810360c0840152611af5818861183c565b905082810360e0840152611b0981876118a9565b9050828103610100840152611b1e818661183c565b9050828103610120840152611b33818561183c565b9d9c50505050505050505050505050565b6001600160e01b031991909116815260200190565b6000602080835283518082850152825b81811015611b8557858101830151858201604001528201611b69565b81811115611b965783604083870101525b50601f01601f1916929092016040019392505050565b60208082526017908201527f46756e6374696f6e20646f6573206e6f74206578697374000000000000000000604082015260600190565b600060e082019050825182526020830151602083015260408301516040830152606083015160608301526080830151608083015260a083015160a083015260c083015160c083015292915050565b90815260200190565b8981526020810189905260408101889052606081018790526001600160a01b03868116608083015285811660a0830152841660c082015261010060e0820181905260009061075583820185876118db565b60405181810167ffffffffffffffff81118282101715611ca757fe5b604052919050565b600067ffffffffffffffff821115611cc357fe5b5060209081020190565b6001600160a01b0381168114610d0c57600080fdfe4f776e61626c653a206e6577206f776e657220697320746865207a65726f2061646472657373496e697469616c697a61626c653a20636f6e747261637420697320616c726561647920696e697469616c697a6564a26469706673582212202cbe9f0abf355f74dab91d9ed3d0053844c43fa6f25fcccff0e5ae394404368864736f6c63430007040033",
  "immutableReferences": {},
  "source": "// SPDX-License-Identifier: MIT\n\npragma solidity 0.7.4;\npragma experimental ABIEncoderV2;\n\nimport \"@openzeppelin/contracts-upgradeable/proxy/Initializable.sol\";\nimport \"@openzeppelin/contracts-upgradeable/access/OwnableUpgradeable.sol\";\nimport \"@openzeppelin/contracts-upgradeable/utils/ReentrancyGuardUpgradeable.sol\";\nimport \"@openzeppelin/contracts-upgradeable/math/MathUpgradeable.sol\";\nimport \"@openzeppelin/contracts-upgradeable/math/SafeMathUpgradeable.sol\";\nimport \"./DistributorRegistry.sol\";\nimport \"./IDistributor.sol\";\n\n\ncontract Distributors is\n    Initializable,\n    OwnableUpgradeable,\n    ReentrancyGuardUpgradeable\n{\n    using MathUpgradeable for uint256;\n    using SafeMathUpgradeable for uint256;\n\n    DistributorRegistry public registry;\n    uint public _ownersCoverCount;\n    \n    bytes4 public constant IID_IERC165 = type(IDistributor).interfaceId;\n\n    event BoughtCover(\n        bytes32 indexed provider,\n        IDistributor.Cover\n        );\n        \n    event ErrorNotHandled(\n        address indexed owner,\n        bytes distributor,\n        bytes reason\n    );\n\n    function initialize(\n            address payable _registry\n        ) public initializer {\n        __Ownable_init();\n        __ReentrancyGuard_init();\n            registry = DistributorRegistry(_registry);\n    }\n    \n    function getDistAddress(string memory _distributorName) public view returns(address){\n        return registry.distributors(_distributorName);\n    }\n    \n    function getCoversCount( string memory _distributorName, address _owner, bool _isActive) public view returns(uint256){\n             IDistributor distributor = IDistributor(registry.distributors(_distributorName));\n              uint256 _ownersCoverCount = distributor.getCoverCount(_owner,_isActive);\n              return _ownersCoverCount;\n    }\n    \n    \n\n    function getCovers(\n        string memory _distributorName,\n        address _owner,\n        bool _isActive,\n        uint256 _limitLoop\n    ) external view returns (IDistributor.Cover[] memory covers) {\n      IDistributor distributor = IDistributor(registry.distributors(_distributorName));\n      uint256 _ownersCoverCount = distributor.getCoverCount(_owner,_isActive);\n\n        uint256 limit = 0;\n            if(_ownersCoverCount > _limitLoop){\n                limit = _limitLoop;\n            }else{\n                limit = _ownersCoverCount;\n            }\n            \n        IDistributor.Cover[] memory userCovers = new IDistributor.Cover[](limit);\n        \n        for(uint _coverId = 0; _coverId < limit ; _coverId++){\n            IDistributor.Cover memory cover = distributor.getCover(_owner,_coverId,_isActive,_limitLoop); \n            userCovers[_coverId] = cover;\n        }\n        return userCovers;\n    }\n    \n    \n    function getQuote(\n        string memory _distributorName,\n        uint256 _interfaceCompliant1,\n        uint256 _interfaceCompliant2,\n        uint256 _sumAssured,\n        uint256 _coverPeriod,\n        address _contractAddress,\n        address _coverAsset,\n        address _nexusCoverable,\n        bytes calldata _data\n    )external view returns(\n        IDistributor.CoverQuote memory\n    ){\n         IDistributor distributor = IDistributor(registry.distributors(_distributorName));\n\n         return distributor.getQuote( _interfaceCompliant1,\n                                _interfaceCompliant2,\n                                _sumAssured,\n                                _coverPeriod,\n                                _contractAddress,\n                                _coverAsset,\n                                _nexusCoverable,\n                                _data);\n    }\n\n    function buyCover(\n        string memory _distributorName,\n        address contractAddress,\n        address coverAsset,\n        uint256 sumAssured,\n        uint16 coverPeriod,\n        uint8 coverType,\n        uint256 maxPriceWithFee,\n        bytes calldata data\n    ) external payable {\n        IDistributor distributor = IDistributor(registry.distributors(_distributorName));\n        distributor.buyCover(contractAddress,\n                                  coverAsset,\n                                  sumAssured,\n                                  (coverPeriod),\n                                  (coverType),\n                                  maxPriceWithFee,\n                                  data);\n    }\n    \n    function buyCoverDecode(\n        string memory _distributorName,\n        uint16[] memory products,\n        uint16[] memory durationInDays,\n        uint256[] memory amounts,\n        address currency,\n        uint256 premiumAmount,\n        uint256[] memory helperParameters,\n        uint256[] memory securityParameters,\n        uint8[] memory v,\n        bytes32[] memory r,\n        bytes32[] memory s\n    ) external payable{\n         IDistributor distributor = IDistributor(registry.distributors(_distributorName));\n         distributor.buyCoverDecode(products,\n                                  durationInDays,\n                                  amounts,\n                                  currency,\n                                  premiumAmount,\n                                  helperParameters,\n                                  securityParameters,\n                                  v,\n                                  r,\n                                  s);\n    }\n \n    fallback() external payable {\n        revert(\"Function does not exist\");\n    }\n    \n}\n\n\n\n\n\n\n\n\n\n\n",
  "sourcePath": "/Users/danielguerrero/workspace/BRIGHT/distributors/contracts/Distributors.sol",
  "compiler": {
    "name": "solc",
    "version": "0.7.4+commit.3f05b770.Emscripten.clang"
  },
  "schemaVersion": "3.3.4",
  "updatedAt": "2021-10-14T00:59:05.151Z",
  "devdoc": {
    "kind": "dev",
    "methods": {
      "owner()": {
        "details": "Returns the address of the current owner."
      },
      "renounceOwnership()": {
        "details": "Leaves the contract without owner. It will not be possible to call `onlyOwner` functions anymore. Can only be called by the current owner. NOTE: Renouncing ownership will leave the contract without an owner, thereby removing any functionality that is only available to the owner."
      },
      "transferOwnership(address)": {
        "details": "Transfers ownership of the contract to a new account (`newOwner`). Can only be called by the current owner."
      }
    },
    "version": 1
  },
  "userdoc": {
    "kind": "user",
    "methods": {},
    "version": 1
  }
}