{
    "contractName": "NexusDistributorWrapper",
    "abi": [
        {
            "anonymous": false,
            "inputs": [
                {
                    "indexed": true,
                    "internalType": "address",
                    "name": "previousOwner",
                    "type": "address"
                },
                {
                    "indexed": true,
                    "internalType": "address",
                    "name": "newOwner",
                    "type": "address"
                }
            ],
            "name": "OwnershipTransferred",
            "type": "event"
        },
        {
            "inputs": [],
            "name": "owner",
            "outputs": [
                {
                    "internalType": "address",
                    "name": "",
                    "type": "address"
                }
            ],
            "stateMutability": "view",
            "type": "function",
            "constant": true
        },
        {
            "inputs": [],
            "name": "renounceOwnership",
            "outputs": [],
            "stateMutability": "nonpayable",
            "type": "function"
        },
        {
            "inputs": [
                {
                    "internalType": "address",
                    "name": "newOwner",
                    "type": "address"
                }
            ],
            "name": "transferOwnership",
            "outputs": [],
            "stateMutability": "nonpayable",
            "type": "function"
        },
        {
            "inputs": [
                {
                    "internalType": "address",
                    "name": "_nexuBrightMasterNft",
                    "type": "address"
                }
            ],
            "name": "initialize",
            "outputs": [],
            "stateMutability": "nonpayable",
            "type": "function"
        },
        {
            "inputs": [
                {
                    "internalType": "address",
                    "name": "_owner",
                    "type": "address"
                },
                {
                    "internalType": "bool",
                    "name": "_",
                    "type": "bool"
                }
            ],
            "name": "getCoverCount",
            "outputs": [
                {
                    "internalType": "uint256",
                    "name": "",
                    "type": "uint256"
                }
            ],
            "stateMutability": "view",
            "type": "function",
            "constant": true
        },
        {
            "inputs": [
                {
                    "internalType": "address",
                    "name": "_owner",
                    "type": "address"
                },
                {
                    "internalType": "uint256",
                    "name": "_coverId",
                    "type": "uint256"
                },
                {
                    "internalType": "bool",
                    "name": "_isActive",
                    "type": "bool"
                },
                {
                    "internalType": "uint256",
                    "name": "_loopLimit",
                    "type": "uint256"
                }
            ],
            "name": "getCover",
            "outputs": [
                {
                    "components": [
                        {
                            "internalType": "bytes32",
                            "name": "coverType",
                            "type": "bytes32"
                        },
                        {
                            "internalType": "uint256",
                            "name": "productId",
                            "type": "uint256"
                        },
                        {
                            "internalType": "bytes32",
                            "name": "contractName",
                            "type": "bytes32"
                        },
                        {
                            "internalType": "uint256",
                            "name": "coverAmount",
                            "type": "uint256"
                        },
                        {
                            "internalType": "uint256",
                            "name": "premium",
                            "type": "uint256"
                        },
                        {
                            "internalType": "address",
                            "name": "currency",
                            "type": "address"
                        },
                        {
                            "internalType": "address",
                            "name": "contractAddress",
                            "type": "address"
                        },
                        {
                            "internalType": "uint256",
                            "name": "expiration",
                            "type": "uint256"
                        },
                        {
                            "internalType": "uint256",
                            "name": "status",
                            "type": "uint256"
                        },
                        {
                            "internalType": "address",
                            "name": "refAddress",
                            "type": "address"
                        }
                    ],
                    "internalType": "struct IDistributor.Cover",
                    "name": "",
                    "type": "tuple"
                }
            ],
            "stateMutability": "view",
            "type": "function",
            "constant": true
        },
        {
            "inputs": [
                {
                    "internalType": "address",
                    "name": "_owner",
                    "type": "address"
                },
                {
                    "internalType": "uint256",
                    "name": "_coverId",
                    "type": "uint256"
                },
                {
                    "internalType": "uint256",
                    "name": "_loopLimit",
                    "type": "uint256"
                }
            ],
            "name": "_nexusGetCoversBoughtFromNexusDistributor",
            "outputs": [
                {
                    "components": [
                        {
                            "internalType": "bytes32",
                            "name": "coverType",
                            "type": "bytes32"
                        },
                        {
                            "internalType": "uint256",
                            "name": "productId",
                            "type": "uint256"
                        },
                        {
                            "internalType": "bytes32",
                            "name": "contractName",
                            "type": "bytes32"
                        },
                        {
                            "internalType": "uint256",
                            "name": "coverAmount",
                            "type": "uint256"
                        },
                        {
                            "internalType": "uint256",
                            "name": "premium",
                            "type": "uint256"
                        },
                        {
                            "internalType": "address",
                            "name": "currency",
                            "type": "address"
                        },
                        {
                            "internalType": "address",
                            "name": "contractAddress",
                            "type": "address"
                        },
                        {
                            "internalType": "uint256",
                            "name": "expiration",
                            "type": "uint256"
                        },
                        {
                            "internalType": "uint256",
                            "name": "status",
                            "type": "uint256"
                        },
                        {
                            "internalType": "address",
                            "name": "refAddress",
                            "type": "address"
                        }
                    ],
                    "internalType": "struct IDistributor.Cover",
                    "name": "",
                    "type": "tuple"
                }
            ],
            "stateMutability": "view",
            "type": "function",
            "constant": true
        },
        {
            "inputs": [
                {
                    "internalType": "address",
                    "name": "_owner",
                    "type": "address"
                },
                {
                    "internalType": "uint256",
                    "name": "_coverId",
                    "type": "uint256"
                },
                {
                    "internalType": "uint256",
                    "name": "_loopLimit",
                    "type": "uint256"
                }
            ],
            "name": "_nexusGetCoversBoughtFromNexusDirectly",
            "outputs": [
                {
                    "components": [
                        {
                            "internalType": "bytes32",
                            "name": "coverType",
                            "type": "bytes32"
                        },
                        {
                            "internalType": "uint256",
                            "name": "productId",
                            "type": "uint256"
                        },
                        {
                            "internalType": "bytes32",
                            "name": "contractName",
                            "type": "bytes32"
                        },
                        {
                            "internalType": "uint256",
                            "name": "coverAmount",
                            "type": "uint256"
                        },
                        {
                            "internalType": "uint256",
                            "name": "premium",
                            "type": "uint256"
                        },
                        {
                            "internalType": "address",
                            "name": "currency",
                            "type": "address"
                        },
                        {
                            "internalType": "address",
                            "name": "contractAddress",
                            "type": "address"
                        },
                        {
                            "internalType": "uint256",
                            "name": "expiration",
                            "type": "uint256"
                        },
                        {
                            "internalType": "uint256",
                            "name": "status",
                            "type": "uint256"
                        },
                        {
                            "internalType": "address",
                            "name": "refAddress",
                            "type": "address"
                        }
                    ],
                    "internalType": "struct IDistributor.Cover",
                    "name": "",
                    "type": "tuple"
                }
            ],
            "stateMutability": "view",
            "type": "function",
            "constant": true
        },
        {
            "inputs": [
                {
                    "internalType": "address",
                    "name": "_add",
                    "type": "address"
                }
            ],
            "name": "_nexusGetAllCoversOfUser",
            "outputs": [
                {
                    "internalType": "uint256[]",
                    "name": "allCover",
                    "type": "uint256[]"
                }
            ],
            "stateMutability": "view",
            "type": "function",
            "constant": true
        },
        {
            "inputs": [
                {
                    "internalType": "uint256",
                    "name": "_sumAssured",
                    "type": "uint256"
                },
                {
                    "internalType": "uint256",
                    "name": "_coverPeriod",
                    "type": "uint256"
                },
                {
                    "internalType": "address",
                    "name": "_contractAddress",
                    "type": "address"
                },
                {
                    "internalType": "address",
                    "name": "_coverAsset",
                    "type": "address"
                },
                {
                    "internalType": "address",
                    "name": "_nexusCoverable",
                    "type": "address"
                },
                {
                    "internalType": "bytes",
                    "name": "_data",
                    "type": "bytes"
                }
            ],
            "name": "getQuote",
            "outputs": [
                {
                    "components": [
                        {
                            "internalType": "uint256",
                            "name": "prop1",
                            "type": "uint256"
                        },
                        {
                            "internalType": "uint256",
                            "name": "prop2",
                            "type": "uint256"
                        },
                        {
                            "internalType": "uint256",
                            "name": "prop3",
                            "type": "uint256"
                        },
                        {
                            "internalType": "uint256",
                            "name": "prop4",
                            "type": "uint256"
                        },
                        {
                            "internalType": "uint256",
                            "name": "prop5",
                            "type": "uint256"
                        },
                        {
                            "internalType": "uint256",
                            "name": "prop6",
                            "type": "uint256"
                        },
                        {
                            "internalType": "uint256",
                            "name": "prop7",
                            "type": "uint256"
                        }
                    ],
                    "internalType": "struct IDistributor.CoverQuote",
                    "name": "",
                    "type": "tuple"
                }
            ],
            "stateMutability": "view",
            "type": "function",
            "constant": true
        },
        {
            "inputs": [
                {
                    "internalType": "address",
                    "name": "contractAddress",
                    "type": "address"
                },
                {
                    "internalType": "address",
                    "name": "coverAsset",
                    "type": "address"
                },
                {
                    "internalType": "uint256",
                    "name": "sumAssured",
                    "type": "uint256"
                },
                {
                    "internalType": "uint16",
                    "name": "coverPeriod",
                    "type": "uint16"
                },
                {
                    "internalType": "uint8",
                    "name": "coverType",
                    "type": "uint8"
                },
                {
                    "internalType": "uint256",
                    "name": "maxPriceWithFee",
                    "type": "uint256"
                },
                {
                    "internalType": "bytes",
                    "name": "data",
                    "type": "bytes"
                }
            ],
            "name": "buyCover",
            "outputs": [],
            "stateMutability": "payable",
            "type": "function",
            "payable": true
        },
        {
            "inputs": [
                {
                    "internalType": "uint16[]",
                    "name": "products",
                    "type": "uint16[]"
                },
                {
                    "internalType": "uint16[]",
                    "name": "durationInDays",
                    "type": "uint16[]"
                },
                {
                    "internalType": "uint256[]",
                    "name": "amounts",
                    "type": "uint256[]"
                },
                {
                    "internalType": "address",
                    "name": "currency",
                    "type": "address"
                },
                {
                    "internalType": "uint256",
                    "name": "premiumAmount",
                    "type": "uint256"
                },
                {
                    "internalType": "uint256[]",
                    "name": "helperParameters",
                    "type": "uint256[]"
                },
                {
                    "internalType": "uint256[]",
                    "name": "securityParameters",
                    "type": "uint256[]"
                },
                {
                    "internalType": "uint8[]",
                    "name": "v",
                    "type": "uint8[]"
                },
                {
                    "internalType": "bytes32[]",
                    "name": "r",
                    "type": "bytes32[]"
                },
                {
                    "internalType": "bytes32[]",
                    "name": "s",
                    "type": "bytes32[]"
                }
            ],
            "name": "buyCoverDecode",
            "outputs": [],
            "stateMutability": "payable",
            "type": "function",
            "payable": true
        },
        {
            "inputs": [
                {
                    "internalType": "bytes4",
                    "name": "interfaceId",
                    "type": "bytes4"
                }
            ],
            "name": "supportsInterface",
            "outputs": [
                {
                    "internalType": "bool",
                    "name": "",
                    "type": "bool"
                }
            ],
            "stateMutability": "view",
            "type": "function",
            "constant": true
        }
    ],
    "bytecode": "0x608060405234801561001057600080fd5b50611ed7806100206000396000f3fe6080604052600436106100c25760003560e01c8063b194270f1161007f578063ced938e411610059578063ced938e41461022a578063d8a856ee1461023d578063da1ac23214610250578063f2fde38b14610270576100c2565b8063b194270f146101b0578063b1c36ebe146101dd578063c4d66de81461020a576100c2565b806301ffc9a7146100c75780631f294408146100fd5780631fcdc9911461012a578063715018a6146101575780638da5cb5b1461016e578063ac496c7b14610190575b600080fd5b3480156100d357600080fd5b506100e76100e2366004611980565b610290565b6040516100f49190611c9e565b60405180910390f35b34801561010957600080fd5b5061011d610118366004611769565b6102bd565b6040516100f49190611d42565b34801561013657600080fd5b5061014a610145366004611619565b6105d1565b6040516100f49190611c5a565b34801561016357600080fd5b5061016c6106e0565b005b34801561017a57600080fd5b5061018361079e565b6040516100f49190611bb0565b34801561019c57600080fd5b5061011d6101ab366004611724565b6107ad565b3480156101bc57600080fd5b506101d06101cb3660046116f0565b6108cb565b6040516100f49190611dce565b3480156101e957600080fd5b506101fd6101f8366004611a5b565b610953565b6040516100f49190611cf4565b34801561021657600080fd5b5061016c610225366004611619565b610a77565b61016c61023836600461179d565b610b45565b61016c61024b366004611651565b610bc3565b34801561025c57600080fd5b5061011d61026b366004611769565b610cc0565b34801561027c57600080fd5b5061016c61028b366004611619565b610f29565b60006001600160e01b0319821663bb90826760e01b14806102b557506102b582610290565b90505b919050565b6102c56113df565b6097546040516370a0823160e01b81526000916001600160a01b0316906370a08231906102f6908890600401611bb0565b60206040518083038186803b15801561030e57600080fd5b505afa158015610322573d6000803e3d6000fd5b505050506040513d601f19601f820116820180604052508101906103469190611a43565b905060008382111561035957508261035c565b50805b60608267ffffffffffffffff8111801561037557600080fd5b506040519080825280602002602001820160405280156103af57816020015b61039c6113df565b8152602001906001900390816103945790505b50905060005b828110156105b057609754604051632f745c5960e01b81526000916001600160a01b031690632f745c59906103f0908c908690600401611c20565b60206040518083038186803b15801561040857600080fd5b505afa15801561041c573d6000803e3d6000fd5b505050506040513d601f19601f820116820180604052508101906104409190611a43565b905061044a6113df565b609754604051637ebdb45160e11b815260009182918291829182918291829182916001600160a01b039091169063fd7b68a29061048b908d90600401611dce565b6101006040518083038186803b1580156104a457600080fd5b505afa1580156104b8573d6000803e3d6000fd5b505050506040513d601f19601f820116820180604052508101906104dc9190611ae8565b975097509750975097509750975097508760ff1689610100018181525050868960600181815250508561ffff16896020018181525050848960e0018181525050838960c001906001600160a01b031690816001600160a01b031681525050828960a001906001600160a01b031690816001600160a01b03168152505081896080018181525050808961012001906001600160a01b031690816001600160a01b031681525050888c8c8151811061058e57fe5b60200260200101819052505050505050505050505080806001019150506103b5565b508086815181106105bd57fe5b602002602001015193505050509392505050565b6097546040516227050b60e31b81526060916000916001600160a01b039091169063013828589061060490600401611ca9565b60206040518083038186803b15801561061c57600080fd5b505afa158015610630573d6000803e3d6000fd5b505050506040513d601f19601f820116820180604052508101906106549190611635565b90506060816001600160a01b031663fe7cfbfc856040518263ffffffff1660e01b81526004016106849190611bb0565b60006040518083038186803b15801561069c57600080fd5b505afa1580156106b0573d6000803e3d6000fd5b505050506040513d6000823e601f3d908101601f191682016040526106d891908101906118f0565b949350505050565b6106e861103e565b6001600160a01b03166106f961079e565b6001600160a01b031614610754576040805162461bcd60e51b815260206004820181905260248201527f4f776e61626c653a2063616c6c6572206973206e6f7420746865206f776e6572604482015290519081900360640190fd5b6033546040516000916001600160a01b0316907f8be0079c531659141344cd1fd0a4f28419497f9722a3daafe3b4186f6b6457e0908390a3603380546001600160a01b0319169055565b6033546001600160a01b031690565b6107b56113df565b6107bd6113df565b6001841515141561084757604051636d0d611960e11b8152309063da1ac232906107ef90899089908890600401611c39565b6101406040518083038186803b15801561080857600080fd5b505afa15801561081c573d6000803e3d6000fd5b505050506040513d601f19601f8201168201806040525081019061084091906119a8565b90506108c2565b6040516303e5288160e31b81523090631f2944089061086e90899089908890600401611c39565b6101406040518083038186803b15801561088757600080fd5b505afa15801561089b573d6000803e3d6000fd5b505050506040513d601f19601f820116820180604052508101906108bf91906119a8565b90505b95945050505050565b6097546040516370a0823160e01b81526000916001600160a01b0316906370a08231906108fc908690600401611bb0565b60206040518083038186803b15801561091457600080fd5b505afa158015610928573d6000803e3d6000fd5b505050506040513d601f19601f8201168201806040525081019061094c9190611a43565b9392505050565b61095b611433565b6097546040516227050b60e31b81526000916001600160a01b03169063013828589061098990600401611cb7565b60206040518083038186803b1580156109a157600080fd5b505afa1580156109b5573d6000803e3d6000fd5b505050506040513d601f19601f820116820180604052508101906109d99190611635565b6097546040516227050b60e31b81529192506000916001600160a01b0390911690630138285890610a0c90600401611ca9565b60206040518083038186803b158015610a2457600080fd5b505afa158015610a38573d6000803e3d6000fd5b505050506040513d601f19601f82011682018060405250810190610a5c9190611635565b905060006001600160a01b038316635caca7b48a8a8e8e6001fe5b600054610100900460ff1680610a905750610a90611042565b80610a9e575060005460ff16155b610ad95760405162461bcd60e51b815260040180806020018281038252602e815260200180611e74602e913960400191505060405180910390fd5b600054610100900460ff16158015610b04576000805460ff1961ff0019909116610100171660011790555b610b0c611053565b610b14611105565b609780546001600160a01b0319166001600160a01b0384161790558015610b41576000805461ff00191690555b5050565b60026065541415610b9d576040805162461bcd60e51b815260206004820152601f60248201527f5265656e7472616e637947756172643a207265656e7472616e742063616c6c00604482015290519081900360640190fd5b600260655560405162461bcd60e51b8152610bba90600401611cc5565b60405180910390fd5b60026065541415610c1b576040805162461bcd60e51b815260206004820152601f60248201527f5265656e7472616e637947756172643a207265656e7472616e742063616c6c00604482015290519081900360640190fd5b6002606555609754604051636c542b7760e11b81526001600160a01b039091169063d8a856ee90610c5e908b908b908b908b908b908b908b908b90600401611bc4565b602060405180830381600087803b158015610c7857600080fd5b505af1158015610c8c573d6000803e3d6000fd5b505050506040513d601f19601f82011682018060405250810190610cb09190611a43565b5050600160655550505050505050565b610cc86113df565b604051631fcdc99160e01b81526060903090631fcdc99190610cee908890600401611bb0565b60006040518083038186803b158015610d0657600080fd5b505afa158015610d1a573d6000803e3d6000fd5b505050506040513d6000823e601f3d908101601f19168201604052610d4291908101906118f0565b905060008382511115610d56575082610d5a565b5080515b6060825167ffffffffffffffff81118015610d7457600080fd5b50604051908082528060200260200182016040528015610dae57816020015b610d9b6113df565b815260200190600190039081610d935790505b50905060005b828110156105b057610dc46113df565b609754604051637ebdb45160e11b815260009182918291829182918291829182916001600160a01b039091169063fd7b68a290610e05908d90600401611dce565b6101006040518083038186803b158015610e1e57600080fd5b505afa158015610e32573d6000803e3d6000fd5b505050506040513d601f19601f82011682018060405250810190610e569190611ae8565b975097509750975097509750975097508760ff1689610100018181525050868960600181815250508561ffff16896020018181525050848960e0018181525050838960c001906001600160a01b031690816001600160a01b031681525050828960a001906001600160a01b031690816001600160a01b03168152505081896080018181525050808961012001906001600160a01b031690816001600160a01b031681525050888b8b81518110610f0857fe5b60200260200101819052505050505050505050508080600101915050610db4565b610f3161103e565b6001600160a01b0316610f4261079e565b6001600160a01b031614610f9d576040805162461bcd60e51b815260206004820181905260248201527f4f776e61626c653a2063616c6c6572206973206e6f7420746865206f776e6572604482015290519081900360640190fd5b6001600160a01b038116610fe25760405162461bcd60e51b8152600401808060200182810382526026815260200180611e4e6026913960400191505060405180910390fd5b6033546040516001600160a01b038084169216907f8be0079c531659141344cd1fd0a4f28419497f9722a3daafe3b4186f6b6457e090600090a3603380546001600160a01b0319166001600160a01b0392909216919091179055565b3390565b600061104d3061119a565b15905090565b600054610100900460ff168061106c575061106c611042565b8061107a575060005460ff16155b6110b55760405162461bcd60e51b815260040180806020018281038252602e815260200180611e74602e913960400191505060405180910390fd5b600054610100900460ff161580156110e0576000805460ff1961ff0019909116610100171660011790555b6110e86111a0565b6110f0611240565b8015611102576000805461ff00191690555b50565b600054610100900460ff168061111e575061111e611042565b8061112c575060005460ff16155b6111675760405162461bcd60e51b815260040180806020018281038252602e815260200180611e74602e913960400191505060405180910390fd5b600054610100900460ff16158015611192576000805460ff1961ff0019909116610100171660011790555b6110f0611339565b3b151590565b600054610100900460ff16806111b957506111b9611042565b806111c7575060005460ff16155b6112025760405162461bcd60e51b815260040180806020018281038252602e815260200180611e74602e913960400191505060405180910390fd5b600054610100900460ff161580156110f0576000805460ff1961ff0019909116610100171660011790558015611102576000805461ff001916905550565b600054610100900460ff16806112595750611259611042565b80611267575060005460ff16155b6112a25760405162461bcd60e51b815260040180806020018281038252602e815260200180611e74602e913960400191505060405180910390fd5b600054610100900460ff161580156112cd576000805460ff1961ff0019909116610100171660011790555b60006112d761103e565b603380546001600160a01b0319166001600160a01b038316908117909155604051919250906000907f8be0079c531659141344cd1fd0a4f28419497f9722a3daafe3b4186f6b6457e0908290a3508015611102576000805461ff001916905550565b600054610100900460ff16806113525750611352611042565b80611360575060005460ff16155b61139b5760405162461bcd60e51b815260040180806020018281038252602e815260200180611e74602e913960400191505060405180910390fd5b600054610100900460ff161580156113c6576000805460ff1961ff0019909116610100171660011790555b60016065558015611102576000805461ff001916905550565b6040805161014081018252600080825260208201819052918101829052606081018290526080810182905260a0810182905260c0810182905260e08101829052610100810182905261012081019190915290565b6040518060e00160405280600081526020016000815260200160008152602001600081526020016000815260200160008152602001600081525090565b80356102b881611e19565b80516102b881611e19565b600082601f830112611496578081fd5b81356114a96114a482611dfb565b611dd7565b8181529150602080830190848101818402860182018710156114ca57600080fd5b60005b848110156114e9578135845292820192908201906001016114cd565b505050505092915050565b600082601f830112611504578081fd5b81356115126114a482611dfb565b81815291506020808301908481018184028601820187101561153357600080fd5b60005b848110156114e957813561154981611e2e565b84529282019290820190600101611536565b600082601f83011261156b578081fd5b81356115796114a482611dfb565b81815291506020808301908481018184028601820187101561159a57600080fd5b60005b848110156114e95781356115b081611e3e565b8452928201929082019060010161159d565b803580151581146102b857600080fd5b60008083601f8401126115e3578182fd5b50813567ffffffffffffffff8111156115fa578182fd5b60208301915083602082850101111561161257600080fd5b9250929050565b60006020828403121561162a578081fd5b813561094c81611e19565b600060208284031215611646578081fd5b815161094c81611e19565b60008060008060008060008060e0898b03121561166c578384fd5b883561167781611e19565b9750602089013561168781611e19565b965060408901359550606089013561169e81611e2e565b945060808901356116ae81611e3e565b935060a0890135925060c089013567ffffffffffffffff8111156116d0578283fd5b6116dc8b828c016115d2565b999c989b5096995094979396929594505050565b60008060408385031215611702578182fd5b823561170d81611e19565b915061171b602084016115c2565b90509250929050565b60008060008060808587031215611739578182fd5b843561174481611e19565b935060208501359250611759604086016115c2565b9396929550929360600135925050565b60008060006060848603121561177d578081fd5b833561178881611e19565b95602085013595506040909401359392505050565b6000806000806000806000806000806101408b8d0312156117bc578384fd5b8a3567ffffffffffffffff808211156117d3578586fd5b6117df8e838f016114f4565b9b5060208d01359150808211156117f4578586fd5b6118008e838f016114f4565b9a5060408d0135915080821115611815578586fd5b6118218e838f01611486565b995061182f60608e01611470565b985060808d0135975060a08d013591508082111561184b578586fd5b6118578e838f01611486565b965060c08d013591508082111561186c578586fd5b6118788e838f01611486565b955060e08d013591508082111561188d578384fd5b6118998e838f0161155b565b94506101008d01359150808211156118af578384fd5b6118bb8e838f01611486565b93506101208d01359150808211156118d1578283fd5b506118de8d828e01611486565b9150509295989b9194979a5092959850565b60006020808385031215611902578182fd5b825167ffffffffffffffff811115611918578283fd5b8301601f81018513611928578283fd5b80516119366114a482611dfb565b8181528381019083850185840285018601891015611952578687fd5b8694505b83851015611974578051835260019490940193918501918501611956565b50979650505050505050565b600060208284031215611991578081fd5b81356001600160e01b03198116811461094c578182fd5b60006101408083850312156119bb578182fd5b6119c481611dd7565b905082518152602083015160208201526040830151604082015260608301516060820152608083015160808201526119fe60a0840161147b565b60a0820152611a0f60c0840161147b565b60c082015260e083015160e0820152610100808401518183015250610120611a3881850161147b565b908201529392505050565b600060208284031215611a54578081fd5b5051919050565b600080600080600080600060c0888a031215611a75578081fd5b87359650602088013595506040880135611a8e81611e19565b94506060880135611a9e81611e19565b93506080880135611aae81611e19565b925060a088013567ffffffffffffffff811115611ac9578182fd5b611ad58a828b016115d2565b989b979a50959850939692959293505050565b600080600080600080600080610100898b031215611b04578182fd5b8851611b0f81611e3e565b60208a015160408b01519199509750611b2781611e2e565b60608a015160808b01519197509550611b3f81611e19565b60a08a0151909450611b5081611e19565b60c08a015160e08b01519194509250611b6881611e19565b809150509295985092959890939650565b6001600160a01b03169052565b60008284528282602086013780602084860101526020601f19601f85011685010190509392505050565b6001600160a01b0391909116815260200190565b6001600160a01b038981168252881660208201526040810187905261ffff8616606082015260ff8516608082015260a0810184905260e060c08201819052600090611c129083018486611b86565b9a9950505050505050505050565b6001600160a01b03929092168252602082015260400190565b6001600160a01b039390931683526020830191909152604082015260600190565b6020808252825182820181905260009190848201906040850190845b81811015611c9257835183529284019291840191600101611c76565b50909695505050505050565b901515815260200190565b61145160f21b815260200190565b61475760f01b815260200190565b6020808252601590820152742ab739bab83837b93a32b21037b832b930ba34b7b760591b604082015260600190565b600060e082019050825182526020830151602083015260408301516040830152606083015160608301526080830151608083015260a083015160a083015260c083015160c083015292915050565b600061014082019050825182526020830151602083015260408301516040830152606083015160608301526080830151608083015260a0830151611d8960a0840182611b79565b5060c0830151611d9c60c0840182611b79565b5060e083015160e083015261010080840151818401525061012080840151611dc682850182611b79565b505092915050565b90815260200190565b60405181810167ffffffffffffffff81118282101715611df357fe5b604052919050565b600067ffffffffffffffff821115611e0f57fe5b5060209081020190565b6001600160a01b038116811461110257600080fd5b61ffff8116811461110257600080fd5b60ff8116811461110257600080fdfe4f776e61626c653a206e6577206f776e657220697320746865207a65726f2061646472657373496e697469616c697a61626c653a20636f6e747261637420697320616c726561647920696e697469616c697a6564a264697066735822122079ec7f7395f319a5b128226bb37a627b1fdc34c78a4a8693e2566fe1fb111c4164736f6c63430007040033",
    "immutableReferences": {},
    "source": "\npragma solidity 0.7.4;\npragma experimental ABIEncoderV2;\n\nimport \"@openzeppelin/contracts-upgradeable/token/ERC721/ERC721Upgradeable.sol\";\nimport \"@openzeppelin/contracts-upgradeable/token/ERC20/IERC20Upgradeable.sol\";\nimport \"@openzeppelin/contracts-upgradeable/token/ERC20/SafeERC20Upgradeable.sol\";\nimport \"@openzeppelin/contracts-upgradeable/access/OwnableUpgradeable.sol\";\nimport \"@openzeppelin/contracts-upgradeable/utils/ReentrancyGuardUpgradeable.sol\";\nimport \"@openzeppelin/contracts-upgradeable/math/SafeMathUpgradeable.sol\";\nimport \"@openzeppelin/contracts-upgradeable/math/MathUpgradeable.sol\";\nimport \"@openzeppelin/contracts-upgradeable/proxy/Initializable.sol\";\nimport \"./interfaces/IGateway.sol\";\nimport \"./interfaces/IPool.sol\";\nimport \"./interfaces/INexusDistributor.sol\";\nimport \"./interfaces/IQuotationData.sol\";\nimport \"./interfaces/IGateway.sol\";\nimport \"../../IDistributor.sol\";\n\ncontract NexusDistributorWrapper is IDistributor,\n    OwnableUpgradeable,\n    ReentrancyGuardUpgradeable\n{\n    \n    using MathUpgradeable for uint256;\n    using SafeMathUpgradeable for uint256;\n    INexusDistributor nexuBrightMasterNft;\n\n    function initialize(\n        address _nexuBrightMasterNft\n    ) public initializer {\n        __Ownable_init();\n        __ReentrancyGuard_init();\n        nexuBrightMasterNft = INexusDistributor(_nexuBrightMasterNft);\n    }\n\n    \n    function getCoverCount(address _owner, bool _) external view override returns (uint256){\n        return  nexuBrightMasterNft.balanceOf(_owner);\n    }\n    \n    function getCover(address _owner, uint256 _coverId, bool _isActive, uint256 _loopLimit) external view override\n        returns (IDistributor.Cover memory ){\n                     IDistributor.Cover memory cover;\n                     if(_isActive == true){\n                         cover = this._nexusGetCoversBoughtFromNexusDirectly(_owner, _coverId, _loopLimit);\n                     }else{\n                         cover = this._nexusGetCoversBoughtFromNexusDistributor(_owner, _coverId, _loopLimit);\n                     }\n            return cover;\n        }\n\n    function _nexusGetCoversBoughtFromNexusDistributor(address _owner,  uint256 _coverId, uint256 _loopLimit) \n        external view returns (Cover memory){\n            \n        uint ownerBalance =  nexuBrightMasterNft.balanceOf(_owner);\n        uint limit = 0;\n        if(ownerBalance > _loopLimit){ limit = _loopLimit;} //TODO: .max() fails\n        else{limit = ownerBalance;}\n        \n        Cover[] memory covers = new Cover[](ownerBalance);\n        \n        for (uint i = 0; i < limit; i++){\n            uint256 tokenId =  nexuBrightMasterNft.tokenOfOwnerByIndex(_owner, i);\n\n            Cover memory cover;\n\n            (uint8 status,\n            uint256 sumAssured,\n            uint16 coverPeriod,\n            uint256 validUntil,\n            address contractAddress,\n            address coverAsset,\n            uint256 premiumInNXM,\n            address memberAddress) = nexuBrightMasterNft.getCover(tokenId);\n            \n            cover.status = status;\n            cover.coverAmount = sumAssured;\n            cover.productId = coverPeriod;\n            cover.expiration = validUntil;\n            cover.contractAddress = contractAddress;\n            cover.currency = coverAsset;\n            cover.premium = premiumInNXM;\n            cover.refAddress = memberAddress;\n            covers[i] = cover;\n        }\n        return covers[_coverId];\n    }\n\n    function _nexusGetCoversBoughtFromNexusDirectly(address _owner,  uint256 _coverId, uint256 _loopLimit) \n     external view returns (Cover memory){\n         \n        uint[] memory userCovers =  this._nexusGetAllCoversOfUser(_owner);\n        uint limit = 0;\n        if(userCovers.length > _loopLimit){ limit = _loopLimit;} // TODO: .max() fails\n        else{ limit = userCovers.length; }\n        \n        \n        Cover[] memory covers = new Cover[](userCovers.length);\n        \n        for (uint id = 0; id < limit; id++){\n                Cover memory cover;\n                (uint8 status,\n                uint256 sumAssured,\n                uint16 coverPeriod,\n                uint256 validUntil,\n                address contractAddress,\n                address coverAsset,\n                uint256 premiumInNXM,\n                address memberAddress)  = nexuBrightMasterNft.getCover(id);\n                \n                cover.status = status;\n                cover.coverAmount = sumAssured;\n                cover.productId = coverPeriod;\n                cover.expiration = validUntil;\n                cover.contractAddress = contractAddress;\n                cover.currency = coverAsset;\n                cover.premium = premiumInNXM;\n                cover.refAddress = memberAddress;\n                \n                covers[id] = cover;\n         }\n        return covers[_coverId];\n    }\n    \n    function _nexusGetAllCoversOfUser(address _add) external view returns (uint[] memory allCover){\n        address nexusQuotationDataAddress = nexuBrightMasterNft.getLatestAddress(\"QD\");\n        uint[] memory allCover = IQuotationData(nexusQuotationDataAddress).getAllCoversOfUser(_add);\n        return allCover;\n    }\n\n    function getQuote(\n        uint256 _sumAssured,\n        uint256 _coverPeriod,\n        address _contractAddress,\n        address _coverAsset,\n        address _nexusCoverable,\n        bytes calldata _data\n    )public view  override returns(\n        IDistributor.CoverQuote memory\n    ){\n        address nexusGatewayAddress = nexuBrightMasterNft.getLatestAddress(\"GW\");\n        IQuotationData quoteData = IQuotationData(nexuBrightMasterNft.getLatestAddress(\"QD\"));\n\n        uint256 coverPrice = IGateway(nexusGatewayAddress).getCoverPrice(\n            _contractAddress,\n            _coverAsset,\n            _sumAssured,\n            uint16(_coverPeriod),\n            IGateway.CoverType(1),\n            _data\n        );\n\n        CoverQuote memory coverQuote;\n        coverQuote.prop1 = nexuBrightMasterNft.feePercentage();\n        coverQuote.prop2 = coverQuote.prop1.mul(coverPrice)\n                                            .div(10000)\n                                            .add(coverPrice);\n        coverQuote.prop3 = quoteData.getCoverLength();\n        coverQuote.prop4 = quoteData.getTotalSumAssuredSC(_nexusCoverable,\"DAI\");\n        coverQuote.prop5 = quoteData.getTotalSumAssuredSC(_nexusCoverable, \"ETH\");\n        coverQuote.prop6 = quoteData.getTotalSumAssured(\"DAI\");\n        coverQuote.prop7 = quoteData.getTotalSumAssured(\"ETH\");\n\n        return coverQuote;\n    }\n    \n    function buyCover(\n        address contractAddress,\n        address coverAsset,\n        uint256 sumAssured,\n        uint16 coverPeriod,\n        uint8 coverType,\n        uint256 maxPriceWithFee,\n        bytes calldata data\n    ) external payable override nonReentrant{\n        nexuBrightMasterNft.buyCover(contractAddress,\n                                  coverAsset,\n                                  sumAssured,\n                                  (coverPeriod),\n                                  (coverType),\n                                  maxPriceWithFee,\n                                  data);\n    \n    }\n    \n    function buyCoverDecode(\n         uint16[] memory products,\n        uint16[] memory durationInDays,\n        uint256[] memory amounts,\n        address currency,\n        uint256 premiumAmount,\n        uint256[] memory helperParameters,\n        uint256[] memory securityParameters,\n        uint8[] memory v,\n        bytes32[] memory r,\n        bytes32[] memory s\n    ) external payable override nonReentrant {\n            revert(\"Unsupported operation\");\n    }\n    \n    function supportsInterface(bytes4 interfaceId) public view virtual override returns (bool) {\n         return interfaceId == type(IDistributor).interfaceId || supportsInterface(interfaceId);\n    }\n}",
    "sourcePath": "/Users/danielguerrero/workspace/BRIGHT/distributors/contracts/distributors/nexus/NexusDistributorWrapper.sol",
    "compiler": {
        "name": "solc",
        "version": "0.7.4+commit.3f05b770.Emscripten.clang"
    },
    "schemaVersion": "3.3.4",
    "updatedAt": "2021-10-22T03:24:49.209Z",
    "networkType": "ethereum",
    "devdoc": {
        "kind": "dev",
        "methods": {
            "owner()": {
                "details": "Returns the address of the current owner."
            },
            "renounceOwnership()": {
                "details": "Leaves the contract without owner. It will not be possible to call `onlyOwner` functions anymore. Can only be called by the current owner. NOTE: Renouncing ownership will leave the contract without an owner, thereby removing any functionality that is only available to the owner."
            },
            "supportsInterface(bytes4)": {
                "details": "Returns true if this contract implements the interface defined by `interfaceId`. See the corresponding https://eips.ethereum.org/EIPS/eip-165#how-interfaces-are-identified[EIP section] to learn more about how these ids are created. This function call must use less than 30 000 gas."
            },
            "transferOwnership(address)": {
                "details": "Transfers ownership of the contract to a new account (`newOwner`). Can only be called by the current owner."
            }
        },
        "version": 1
    },
    "userdoc": {
        "kind": "user",
        "methods": {},
        "version": 1
    }
}